:020000040800F2
:10000000A80B0020A9010008652C0008872600081D
:100010001D2B0008B91400086B3000080000000018
:10002000000000000000000000000000F32E0008A7
:10003000BB14000800000000852E0008F52E000803
:10004000C3010008C3010008C3010008C301000880
:10005000C3010008872E0008C3010008C30100087F
:10006000C3010008C3010008C3010008C301000860
:10007000C3010008C3010008C3010008C301000850
:10008000C3010008C3010008C3010008C301000840
:10009000C3010008C3010008C3010008C301000830
:1000A000C30100087D2F0008C3010008C301000838
:1000B000C3010008C3010008C3010008C301000810
:1000C000C3010008C3010008C3010008C301000800
:1000D000C3010008C3010008C3010008C3010008F0
:1000E000C3010008C3010008C301000800F002F8C2
:1000F00000F04AF80AA090E8000C82448344AAF178
:100100000107DA4501D100F03FF8AFF2090EBAE875
:100110000F0013F0010F18BFFB1A43F0010318473B
:100120007C7800009C780000103A24BF78C878C121
:10013000FAD8520724BF30C830C144BF04680C60ED
:10014000704700000023002400250026103A28BF35
:1001500078C1FBD8520728BF30C148BF0B60704739
:10016000662906F06880642900F07A8000207047D4
:100170001FB500F05FFC04000020002105F006F828
:10018000E0601FBD10B510BD00F058FD1146FFF72F
:10019000EFFF03F023FF00F076FD03B4FFF7F2FF5B
:1001A00003BC00F0BBFD0000094880470948004738
:1001B000FEE7FEE7FEE7FEE7FEE7FEE7FEE7FEE717
:1001C000FEE7FEE704480549054A064B7047000074
:1001D000792F0008ED000008A8050020A80B0020DA
:1001E000A8070020A80700200FB41CB5074B06AADB
:1001F0007B4469460090059800F0E1FB00206946C9
:1002000000F0F0FB1CBC5DF814FB0000F1070000DF
:1002100070B5044685690068C10601D5302600E046
:100220002026C00707D070BDD4E901213046904791
:10023000206A401C20626D1EF6D570BD70B5044664
:1002400085690078C00707D170BDD4E9012120205D
:100250009047206A401C20626D1EF6D570BD0000DC
:100260002DE9F0410646002410687529314616A58F
:1002700010D0AFF30080002802DA404213A507E057
:1002800031688A0701D512A502E0490704D511A5F6
:10029000012401E0AFF3008000210A2206F12407C7
:1002A00009E0B0FBF2FCB0FBF2F302FB1C003030C3
:1002B00078541846491C0028F3D123462A46304674
:1002C000BDE8F04100F00DB9000000002D00000075
:1002D0002B000000200000002DE9F05F8946044655
:1002E0004FF0000ADFF824B1FB44C0F820A02046FC
:1002F000E168884700287DD0252806D0D4E901216F
:100300009047206A401C2062F1E700255F462046A6
:10031000E16888472028064607DB312E05D2B81948
:1003200010F8200C08B10543F1E7A80701D525F026
:100330000405C4F81CA00027C4F818A02A2E09D070
:10034000304602F01FFF38B304EB8708303EC8F890
:10035000186019E059F8041B204604EB87029161EC
:10036000E1688847012F064618D1E069002820DAA5
:1003700025F020051DE0D8F8180000EB800006EB02
:1003800040003038C8F818002046E1688847064623
:1003900002F0F8FE0028EED1012F0AD02E2E08D14F
:1003A0002046E16888477F1C0646022F45F020055D
:1003B000C4DBA069002803DA404245F00105A061D2
:1003C000E80701D025F01005A6B1A6F141001928D3
:1003D00002D8203645F400654A463146204625605D
:1003E0004D46FFF7BDFE60B1012807D0ED1D25F099
:1003F000070000E007E000F1080978E705F10409CB
:1004000075E730467AE7206ABDE8F09F1675000070
:1004100040EA010310B59B070FD1042A0DD310C881
:1004200008C9121F9C42F8D020BA19BA884201D9D3
:10043000012010BD4FF0FF3010BD1AB1D30703D01B
:10044000521C07E0002010BD10F8013B11F8014BD1
:100450001B1B07D110F8013B11F8014B1B1B01D1ED
:10046000921EF1D1184610BD02F0FF0343EA0322A9
:1004700042EA024200F0BDBA4FF0000200B5134656
:1004800094469646203922BFA0E80C50A0E80C50B4
:10049000B1F12001BFF4F7AF090728BFA0E80C5065
:1004A00048BF0CC05DF804EB890028BF40F8042B5E
:1004B00008BF704748BF20F8022B11F0804F18BFCB
:1004C00000F8012B704770477047704710B500F077
:1004D000B5FA006810BD10B5044600F0AFFA04602C
:1004E00010BD2DE9F0470D4699469246044600F1AD
:1004F00024080168880604D5E06921F01001216014
:1005000000E00120A84201DD471B00E00027A169AF
:100510007A1902EB0900081AA0612078C00602D4FB
:100520002046FFF775FE002608E0D4E901211AF8FD
:1005300006009047206A401C761C20624E45F4DB82
:100540002078C0060AD52046FFF762FE06E0D4E90F
:10055000012130209047206A401C2062381EA7F1FC
:100560000107F4DC07E0D4E9012118F80500904701
:10057000206A401C2062281EA5F10105F3DC2046FC
:10058000FFF75CFE2078000602D50220BDE8F08768
:100590000120FBE770472DE9FF4F0C461E464FF048
:1005A000FF378BB0D2E90001DDF860800A908A46FF
:1005B000C1F30A5505B93D46002108464FF0000039
:1005C000BAF1000F00F4400005DA00EB80004FF4B0
:1005D000400101EA50004FEA9059B9F1010F00DDE6
:1005E000B9460A9850EA4A000ED044F61050A5F2D7
:1005F000FF3545432F14B8F1000F1ED07542291E58
:100600001EDDC9F100021CE0B8F1010F4FF000003F
:1006100001D0302103E0F24305E02154401CB042F8
:10062000FBDB30460022002121540B99C1F80880E1
:10063000C1E900200FB0BDE8F08FBD1B6D1CDEE7E7
:100640004A4600DA694206A800F082FA06AB93E84F
:10065000070003AB83E8070050460A9900F064FBEB
:100660008DE80700A0F500501F3800900398002D7A
:100670000ADD42F21F014A460844002303A9039001
:10068000684600F0CDFD09E0A0F500504A461F384D
:10069000002303A90390684600F0D7FD8DE807000A
:1006A0000004000C03D04FF0FF30410800E010467A
:1006B000B8F1000F03D00022009215461EE0751E0F
:1006C00005D400F0BFF9303262556D1EF9D5B3463E
:1006D0000122084302D000227F1C04E02078302849
:1006E00001D100227F1E002A099784D01DE0112D20
:1006F00007DA00F0A7F9303262556D1C50EA0102AA
:10070000F5D1084302D00098C8B10EE00021681E60
:1007100005E0235C625C63542254401E491C814204
:10072000F7DBAB46A81B401E0990002004F80B0025
:100730000B98099AC0F80880C0E9002B7AE71126C7
:100740004FF0000857E72DE9F04F88460446D21DC8
:1007500022F0070191B0D1E90001CDE90A0102F0D0
:1007600085FC02460B98C00F01D02D2007E02068C1
:10077000810701D52B2002E0202101EAC000032AD5
:10078000099001D0072A05DB03464146204600F0C8
:100790009FF90BE12078800601D5E06900E0062092
:1007A000B8F1650F814606D0B8F1660F18D0B8F1E0
:1007B000670F70D131E00020B9F1110F009001DB1B
:1007C000112301E009F101030AAA01A90CA8FFF70E
:1007D000E2FEDDE90C70002609F10105834647E0E1
:1007E00001204B4600904FF000470AAA01A90CA82F
:1007F000FFF7D1FEDDE90DB00C995D46002610B97A
:1008000009F101000D18B9EB050003D4C0F1FF3662
:1008100009F10105A5EB09002BE0B9F1010F01DA9F
:100820004FF001090020B9F1110F0090484601DD99
:10083000112300E003460AAA01A90CA8FFF7ABFEAA
:10084000DDE90C704D4600268346207800070AD467
:10085000AB4500DA5D4601A8012D04DD411911F810
:10086000011C302907D04F4502DA17F1040F04DAD2
:10087000012082460FE06D1EEEE7002F02DCED1B2B
:100880003E4403E0781CA84200DD7D1CB81B00F14B
:10089000010A4FF000472078000703D4AA4501DB86
:1008A0004FF0FF3A0021B7F1004F0DF143088DF8EA
:1008B000431024D002202B23002F01DA7F422D2366
:1008C0000A21021EA0F1010000DC5FB197FBF1FCE0
:1008D00097FBF1F201FB1C7C17460CF1300C08F879
:1008E00001CDEEE7A8F1010003702188090501D5CB
:1008F000452100E06521A0F1010800F8011C0998DC
:100900000FA9A1EB0807FF1D00B10120411901EB60
:10091000EA70A1693844081A401EA0612078C00618
:1009200002D42046FFF774FC099828B1D4E90121CC
:100930009047206A401C20622078C00622D52046BD
:10094000FFF766FC1EE0002E04DBB34502DD01A8C4
:10095000805D00E03020D4E901219047206A401CEE
:100960002062761CAAF101005FEA000A0AD100F0B9
:1009700061F8C0680168405CD4E901219047206AB1
:10098000401C2062281EA5F10105DCDC07E0D4E94B
:10099000012118F8010B9047206A401C2062381E84
:1009A000A7F10107F3DC2046FFF748FC032011B054
:1009B00041E6000001694A1C02610878704700B5F1
:1009C0008FB0CDE901310021059105497944CDE988
:1009D000031011466846FFF77FFC0FB000BD000012
:1009E000E5FFFFFF0A6802F8010B0A6070474FF04D
:1009F00000020429C0F0128010F0030C3FF43EAD59
:100A0000CCF1040CBCF1020F18BF00F8012BA8BFF9
:100A100020F8022BA1EB0C01FFF730BD5FEAC17C8F
:100A200024BF00F8012B00F8012B48BF00F8012B70
:100A30007047000000487047680500200048704774
:100A40004805002030B5B0F10A024FEA900E71F16E
:100A500000034EEA817EB0EB0E0061EB91014FEA9C
:100A6000101E4EEA017E10EB0E0041EB11114FEA11
:100A7000102E4EEA016E10EB0E0041EB11214FEAF1
:100A8000104E4EEA014E10EB0E0041EB11414018A2
:100A900041F100014FEAD00040EA41704FEAD10134
:100AA00010EB80054FEA810444EA907444EB0104A2
:100AB0006D1944EB0404521BA3414FF0000348BFDF
:100AC0000A3200D530BD401C41F1000130BD0000AC
:100AD0002DE9F0411F46044603260168072A01F468
:100AE000006004DB08B116A505E016A503E008B117
:100AF00015A500E015A521F010002060A069C01E1A
:100B0000A0610FB1401EA0612046FFF781FB4FB1ED
:100B1000D4E9012138469047206A401C2062C01C5D
:100B2000206206E0206AFAE7D4E9012115F8010BFA
:100B30009047761EF8D22046FFF780FBBDE8F08193
:100B40004E414E006E616E00494E4600696E660071
:100B50002DE9F047814616468AB0354878440DC8DD
:100B60008DE80D0032487844801C03AC0DC884E841
:100B70000D0041F69B300844372190FBF1F290FBC9
:100B8000F1F5A5F1800501FB12041B3C02D564427E
:100B9000012000E00020DFF898A080460027FA44FA
:100BA000AAF1BE0A0EE0E0070AD03246684607EB1B
:100BB000470101230AEB810100F047FB8DE80700A4
:100BC00064107F1C002CEED1194F7F44AE3F19E01A
:100BD000E80715D007EB04100DF1180A90E80E0095
:100BE0008AE80E00C068F04201D198190890324698
:100BF000012306A903A800F028FB03AB83E8070044
:100C00006D10641C002DE3D14FF00103324669469C
:100C1000B8F1000F03A802D000F002FB01E000F0E1
:100C200014FBC9E90001C9F808200AB0BDE8F08743
:100C3000246E000000487047480500207546FFF705
:100C4000F9FFAE4605006946534620F00700854689
:100C500018B020B5FFF7B6FABDE820404FF0000607
:100C60004FF000074FF000084FF0000B21F0070194
:100C7000AC46ACE8C009ACE8C009ACE8C009ACE8D7
:100C8000C0098D46704710B50446AFF3008020467A
:100C9000BDE81040FFF781BA4FF0013C50F8042B3B
:100CA00051F8043B9A4221D1A2EB0C03934313EA7F
:100CB000CC1317D150F8042B51F8043B9A4215D1AC
:100CC000A2EB0C03934313EACC130BD150F8042B83
:100CD00051F8043B9A4209D1A2EB0C03934313EA67
:100CE000CC13DBD04FF00000704700BFD01A01BA20
:100CF000B1FA81F101F0180122FA01F0CB40C1F103
:100D00002001DBB2C0B2C01A2CFA01F3D11A914310
:100D100011EAC311E6D1704770470000014918205D
:100D2000ABBEFEE7260002005FEA400C08BF91F070
:100D3000000F4FEA8C234FEAC12243EA51514FEA98
:100D40001C5018BF00F5F0404FEA300018BF41F0CA
:100D500000415FEA6C5C00F02980BCF1FF3F08BFF6
:100D600040F080407047130C06BF12044FF0100C87
:100D70004FF0000C130E04BF12020CF1080C130FFD
:100D800004BF12010CF1040C930F04BF92000CF18C
:100D9000020CD30F04BF52000CF1010C11464FF0AE
:100DA0000002A0F11F00A0EB0C00704711F0004FF3
:100DB00008BF704731F000413FF4D5AF0B0C06BFC0
:100DC00009044FF0100C4FF0000C0B0E04BF090289
:100DD0000CF1080C0B0F04BF09010CF1040C8B0F74
:100DE00004BF89000CF1020CCB0F04BF49000CF1C9
:100DF000010CCCF12003A0EB0C0022FA03F302FA61
:100E00000CF241EA030100F10100704720F07F4C31
:100E100080EA030023F07F47ACEB070303F57C5324
:100E200000F0004003F1FF032DE980494FEA154B24
:100E300009B44FEA144325EA0B4E24EA03480FF2A3
:100E4000042606EB132749083E785FEA320203FBCB
:100E50000667C7F5000707FB06F64FEA54374FEA67
:100E6000D64606F1020607FB066CCCF1005C4FEAA1
:100E70001C472CEA074C07FB06F40CFB06F504EBB9
:100E800015464FEA961634BF00204FF000404FEA57
:100E9000D13706FB07FC4FEA1C4C0CFB0BF7D21BAF
:100EA00003FB0CF761EB07010CFB0EF7B0EB0740FF
:100EB00072EB17420CFB08F734BFA2EB0742B2EB10
:100EC000074261EB17414FEA0C444FEA910706FBDA
:100ED00007FC4FEA1C4C0CFB0BF7B0EBC74072EB66
:100EE000573203FB0CF734BFA2EBC742B2EBC74249
:100EF00061EB57310CFB0EF7B0EBC70072EB57728A
:100F00000CFB08F734BFA2EBC702B2EBC70261EBE0
:100F10005771039F4FEA816141EA921104EBCC04BF
:100F20004FEAD1374FEA826206FB07FC42EA901291
:100F30004FEA80604FEA1C4C0CFB0BF7D21B03FB03
:100F40000CF761EB07010CFB0EF7B0EB074072EBFF
:100F500017420CFB08F734BFA2EB0742B2EB074283
:100F600061EB17414FEA8C554FEA910704EB9C2443
:100F700006FB07FC4FEA1C4C0CFB0BF7B0EBC74021
:100F800072EB573203FB0CF734BFA2EBC742B2EB54
:100F9000C74261EB57310CFB0EF7B0EBC70072EBA9
:100FA00057720CFB08F734BFA2EBC702B2EBC702C3
:100FB00061EB577115EB4C254FEA816141EA9211C3
:100FC0004FEA82624FEAD13742EA901206FB07FCF1
:100FD00044F100044FEA80604FEA1C4C0CFB0BF715
:100FE000D21B03FB0CF761EB07010CFB0EF7B0EB18
:100FF000074072EB17420CFB08F734BFA2EB074225
:10100000B2EB074261EB174115EB1C154FEA81313A
:1010100041EA92414FEA823242EA90424FEA8030FE
:101020004FEA0C7644F1000448EA03434EEA0B48C9
:101030004FF0000EB2EB080C71EB030724BF6246C1
:1010400039464EEB0E0E4FF0000B0018524149414D
:101050004BEB0B0BB2EB080C71EB03077BF1000BB6
:1010600024BF624639464EEB0E0E4FF0000B0018BF
:10107000524149414BEB0B0BB2EB080C71EB0307F0
:101080007BF1000B24BF624639464EEB0E0E51EA4F
:10109000020718BF46F0010616EB0E7655F1000266
:1010A00054F1000103D5BDE88901BDE80088BDE821
:1010B0008901BDE80048B619524141EB0101A3F195
:1010C0000103704780807F7E7D7C7B7A797877769C
:1010D00076757473727171706F6E6E6D6C6C6B6A15
:1010E0006A696868676666656464636362616160B3
:1010F000605F5F5E5E5D5D5C5C5B5B5A5A59595830
:101100005857575656555555545453535252525199
:10111000515050504F4F4F4E4E4D4D4D4C4C4C4BEF
:101120004B4B4A4A4A494949484848474747474636
:101130004646454545444444444343434342424272
:1011400042414141002B9C4630D477002BD01CB546
:101150004FEA370703B44FF010004FF01001BAF117
:10116000000F06D0BCF1000FDCBF40F0080040F0DB
:1011700008014FF000000FBCBDE810400BF1010B5F
:10118000BBF1010F08BF5FEA170722BF12F101028E
:1011900011F101014FF0004143F1000300F0004064
:1011A00043EA00007047F9D35708D0E746EA0646FD
:1011B00013F1400F4FEA16461FDD13F1200FDFBF7A
:1011C00016430A46002120335B42BED0C3F12007FC
:1011D00046EA064602FA07F74FEA164646EA0706C7
:1011E000C3F1200722FA03F201FA07F721FA03F10B
:1011F0004FF0000342EA0702A7E746EA020646EA82
:1012000006464FEA164646EA0106BCBF46EA0646CF
:10121000360C4FF000034FF000024FF0000194E74E
:101220002DE9804C9A46934670B491E8380007C87F
:1012300031EA400C48BF34EA430C03D5FFF7E6FD22
:10124000FFF780FFF0BCBDE8008C2DE9804C9A468A
:10125000934670B491E8380007C810F0804F08BF7B
:1012600013F0804F03D100F005F8FFF76BFFF0BCDF
:10127000BDE8008C20F07F4780EA030023F07F4C1C
:1012800007EB0C03A3F57C5300F00040A3F1FE0331
:1012900092F0000F00F0B38095F0000F00F077801F
:1012A0002DE901494FEA11404FEA144621EA00486E
:1012B00000FB06FC24EA064708FB06F607FB08F8D5
:1012C00000FB07F718EB06484CEB164C4FEA124BA5
:1012D00018EB07484FEA15464CEB174022EA0B4E35
:1012E0000BFB06FC25EA06470EFB06F607FB0EFE87
:1012F0000BFB07F71EEB064E4CEB164C4FF00006AF
:101300001EEB074E4CEB174B18EB0B0840F100009F
:1013100018EB0E0B58EB000840F100008F1A4FF04D
:1013200000013CBFC943661B14BFB5EB040C002190
:101330003CBFC943F61B4FEA17444EEA8E0E27EA1C
:1013400004454FEA1C4704FB07622CEA074C05FBE7
:1013500007F70CFB05F604FB0CFC16EB074642EB0B
:10136000174216EB0C4642EB1C421BEB060658EBF1
:101370000202414146EA9E0601D5BDE80189B6193F
:10138000524141EB0101A3F10103BDE801894FEA9C
:1013900014454FEA114724EA054621EA074C05FBAC
:1013A00007F406FB07F70CFB06F105FB0CFC11EB41
:1013B000074144EB17444FEA124711EB0C4144EB51
:1013C0001C4422EA074C05FB07F206FB07F70CFB5F
:1013D00006F605FB0CFC16EB074642EB174216EB34
:1013E0000C4642EB1C456A1854F1000148BF704797
:1013F000B619524141EB0101A3F10103704795F089
:10140000000F37D04FEA11424FEA144721EA024653
:1014100024EA074C02FB07F106FB07F70CFB06F476
:1014200002FB0CFC14EB074441EB17414FEA154754
:1014300014EB0C4441EB1C4125EA074C02FB07F579
:1014400006FB07F70CFB06F602FB0CFC16EB074647
:1014500045EB174516EB0C4645EB1C42121951F1B2
:10146000000148BF7047B619524141EB0101A3F199
:10147000010370474FEA14454FEA114724EA054635
:1014800021EA074C05FB07F106FB07F70CFB06F208
:101490004FF0000605FB0CFC12EB074241EB174135
:1014A00012EB0C4251EB1C4148BF7047921841EBC4
:1014B0000101A3F101037047FEE7704700B5024642
:1014C0004FF47A7302E0184600F003F8521EFAD285
:1014D00000BD00EBC000C1004FF0E02041610021E1
:1014E0008161052101610169C903FCD50421016104
:1014F000704772B6FEE700002DE9F84FDFF8B891AB
:101500000024A9F1040B23460F2709F1040AABF1CB
:10151000040EC9E00125A5402A40AA427DD1674EAC
:10152000D1F804C0ACEB0608B44532D014DCBCF1F1
:10153000030F3AD009DCBCF1000F2AD0BCF1010F37
:101540001CD0BCF1020F31D11DE0BCF1110F17D03E
:10155000BCF1120F2AD119E0B8F5881F19D006DCAA
:10156000B8F5803F15D0B8F5801F1FD111E0B8F550
:10157000001F0ED0B8F5041F18D10AE0CB6815E0A3
:10158000CB681B1D12E0CB6808330FE0CB680C332F
:101590000CE08B682BB1012B4FF0080303D04561A1
:1015A00004E0042302E0056100E00023FF2A01D8E3
:1015B000064601E000F104064FEA840501D9A5F1D1
:1015C0002005D6F8008007FA05FC28EA0C0803FA83
:1015D00005F548EA0508C6F800804D68ED0062D5BB
:1015E000374DAE6946F00106AE61AD6924F00306E1
:1015F00005F001050095334D06EB050CDCF80850AD
:10160000A607360F07FA06F825EA0805DFF8B880BE
:10161000404503D14FF0000817E044E0DFF8AC800C
:10162000404502D14FF001080FE0DFF8A4804045AB
:1016300002D14FF0020808E0DFF89880404502D15F
:101640004FF0030801E04FF0040808FA06F848EAF2
:101650000508CCF808804D68D9F80060ED024D46C9
:1016600001D5164300E096432E604D68DAF800601D
:10167000AD02554601D5164300E096432E604D68F5
:10168000DBF80060AD035D4601D5164300E09643EC
:101690002E604D68DEF80060ED03754601D51643F7
:1016A00000E096432E60641C0D682A46E5407FF4F6
:1016B00031AFBDE8F88F00000804014000001110B0
:1016C000001002400000014000080140000C0140F1
:1016D00000100140001401408068084000D0012043
:1016E00070470AB1016170470904FBE7014880684F
:1016F000704700006400002070B5040025D094F805
:101700003D00002520B984F83C50204600F050F9F7
:10171000242084F83D002068016821F00101016067
:101720002068016841F4004101602068016821F4EB
:101730000041016000F078FB4D4A6168914201D898
:101740004C4900E04C49884201D2012070BD4B4910
:101750002368B0FBF1F15E6826F03F060E435E6041
:101760006368934206D94FF4967359434FF47A73E2
:10177000B1FBF3F12368491C1E6A26F03F06314392
:1017800019626168914210D84900401EB0FBF1F225
:10179000521CC2F30B02042A01D2042022E0B0FB47
:1017A000F1F0401CC0F30B001CE0A268F2B301EBA7
:1017B000C10303EB0116431EB3FBF6F35B1C43F4BA
:1017C00080431B0549D092B301EBC10202EB01112A
:1017D000401EB0FBF1F0401CC0F30B0040F4804011
:1017E00040F400402168CA694CF6FF739A431043E5
:1017F000C861D4E9071001432068026822F0C002E2
:1018000011430160D4E9030101432068826848F272
:10181000FF339A4311438160D4E9050108432168ED
:10182000CA6822F0FF021043C86001E00EE016E033
:101830002068016841F0010101602564202084F8DE
:101840003D00256384F83E50002070BD01EB410649
:10185000431EB3FBF6F35B1CB3E70120C2E701EBC9
:101860004101401EB0FBF1F0401CC0F30B00B7E794
:10187000A086010080841E0000093D0040420F0048
:101880002DE9FF4F83B09A46DDE911979346044650
:10189000DDF84080FFF72AFF054694F83D00202838
:1018A0007FD11923012240492046009500F084FF92
:1018B000002876D194F83C00012872D0012084F8E9
:1018C0003C0020680168C90703D1016841F00101AB
:1018D00001602068016821F400610160212084F822
:1018E0003D00402084F83E0000262664C4F8248091
:1018F000A4F82A90608D20852C48E062CDE900751F
:1019000053465A462046049900F0D6FE70B930E09E
:101910002A463946204600F0F5FF58B1206C0428CD
:1019200004D12068016841F400710160012007B012
:10193000BDE8F08F606A216800780861606A401C29
:101940006062218D491E89B22185628D521E628599
:1019500022685369DB435B070BD469B100781061DF
:10196000606A401C6062208D401E2085608D401E94
:101970006085208D0028CBD12A463946204600F0CC
:10198000EFFE0028CAD154F83D0B016841F4007104
:101990000160202004F81E09E67766770020C6E77C
:1019A000FFE70220C3E70000020010000000FFFF75
:1019B00010B586B000210091019102910391006859
:1019C0001349884222D1134CA06940F00800A0615D
:1019D000A069694600F0080004904FF44070009040
:1019E00012200190032003900B48FFF785FD0B4860
:1019F000416841F0E06141F002014160E06940F47A
:101A00000010E061E06900F40010049006B010BD21
:101A10000054004000100240000C01400000014052
:101A20000248816802781144816070476400002098
:101A3000074810B5016841F010010160032000F073
:101A40007DF80F2000F006F800F024F8002010BD0B
:101A50000020024070B50D4D04464FF47A7128788D
:101A6000B1FBF0F00A490968B1FBF0F000F033FC7B
:101A700048B9102C07D200222146501E00F03EF833
:101A800000206C6070BD012070BD0000640000206B
:101A900070000020104808B5816941F001018161A2
:101AA000816901F001010091C16941F08051C1617A
:101AB000C069002200F0805000901146052000F01F
:101AC0001DF8052000F00CF80448416821F0E061A1
:101AD00041F00071416008BD00100240000001406B
:101AE000002809DB00F01F0201219140400980001D
:101AF00000F1E020C0F8001170470000F0B40E4B78
:101B00001B680C46C3F30223C3F10705042D00D95B
:101B10000425191D072901D2002300E0DB1E012640
:101B200006FA05F1491E214099409E40761E164056
:101B30003143F0BC01F0AEBA0CED00E0064900F014
:101B4000070208684FF6FF03184040EA0220034AE4
:101B500010430860704700000CED00E00000FA053B
:101B6000014901200862704700000E4210B501468D
:101B70000020234C012922D0022939D010291DD15F
:101B800061682268D20119D51E48C1F38342C90396
:101B9000805C0AD561681B4AC1F34041921E515CCA
:101BA000194AB2FBF1F1484301E018494843616822
:101BB000490203D440000321B0FBF1F010BD226ABA
:101BC000C2F30121012903D1920701D5C80310BD39
:101BD000022905D1626A920702D549F6404010BD3C
:101BE0000329FCD121688903F9D54FF2244010BDA7
:101BF00000F02AF96168C1F38131491C4900DBE733
:101C000000100240DA77000800127A0000093D0057
:101C10002DE9F84305460078354CC00754D0E069FB
:101C20000026C00008D4E06940F08050E061E0691F
:101C3000012600F0805000902E480168C90512D49A
:101C40000168804641F480710160FFF74FFD07464F
:101C500005E000BFFFF74AFDC01B642823D8D8F871
:101C60000000C005F6D5206A10F4407021D0A98884
:101C700001F4407181421CD0206A1F49012220F4E6
:101C800040700A6000220A602062C00711D0FFF78E
:101C90002DFD074641F2883808E000BFFFF726FD1A
:101CA000C11B414502D90320BDE8F883206A8007A3
:101CB000F4D5206A696820F44070084320621EB1A0
:101CC000E06920F08050E0612878800705D56068E1
:101CD000A96820F44040084360602878C00605D514
:101CE0006068E96820F48000084360600020DBE75A
:101CF0000010024000700040400442422DE9F047CD
:101D00000F46050061D0434E306800F00700B8422E
:101D100009D2306820F0070038433060306800F0A6
:101D20000700B84251D128683B4C810712D54007C3
:101D300003D5606840F4E06060602878000703D550
:101D4000606840F4605060606068A96820F0F0004E
:101D5000084360602878C00728D06868012810D040
:101D60002168022810D0890700292EDA616821F045
:101D7000030101436160FFF7B9FC804641F28839F5
:101D80000DE021688903EFE78901EDE7FFF7AEFC7D
:101D9000A0EB0801494502D90320BDE8F08760683F
:101DA000696800F00C00B0EB810FEFD1306800F0F3
:101DB0000700B8420BD9306820F007003843306084
:101DC000306800F00700B84201D00120E5E728782C
:101DD000400705D56068E96820F4E060084360606A
:101DE0002878000706D56068296920F4605040EA29
:101DF000C100606000F038F86168084AC1F303115F
:101E0000515CC8400649086006480068FFF722FE9A
:101E10000020C2E70020024000100240EA770008DC
:101E200070000020680000200448054900684968E7
:101E3000044AC1F30221515CC84070477000002081
:101E400000100240FA770008044805490068496814
:101E5000044AC1F3C221515CC840704770000020A1
:101E600000100240FA7700080E4A51680E4801F04F
:101E70000C03042B11D0082B0FD10C48C1F3834362
:101E8000C903C05C0AD55168084AC1F34041921E9B
:101E9000515C054A5043B0FBF1F070470449484398
:101EA000704700000010024000127A00C877000856
:101EB00000093D002DE9F84F040070D02078C04D96
:101EC000C00749D06868C0F38100012807D068685E
:101ED000C0F38100022809D16868C00306D52868CC
:101EE000800339D560680028E7D035E06068B0F538
:101EF000803F0BD010B1B0F5A02F11D0286820F48E
:101F000080302860286820F4802002E0286840F4AF
:101F100080302860606890B1FFF7E8FB06460AE071
:101F2000286840F480202860F0E700BFFFF7DEFB60
:101F3000801B642873D828688003F7D50CE0FFF76E
:101F4000D5FB064605E000BFFFF7D0FB801B6428E9
:101F5000F0D828688003F7D420789A4E80074FF095
:101F600001094FF0000839D5686810F00C0F07D050
:101F70006868C0F38100022809D16868C00306D4EC
:101F80002868800714D52069012808D110E020694D
:101F9000B0B1C6F80090FFF7A9FB074605E00AE1DB
:101FA000FFF7A4FBC01B0228C4D828688007F7D518
:101FB0002868616920F0F80040EAC10028600DE05F
:101FC000C6F80080FFF792FB074604E0FFF78EFBA0
:101FD000C01B022823D828688007F7D42078000780
:101FE0002CD57948A169D9B1C0F80090FFF77EFBE4
:101FF000074604E0FFF77AFBC01B02280FD8686A87
:102000008007F7D571484FF4FA510068B0FBF1F042
:10201000009000BF0098411E0091FAD20EE080E0CF
:10202000C0F80080FFF762FB074604E0FFF75EFBA5
:10203000C01B022875D8686A8007F7D4207840074B
:1020400060D5E8690027C00008D4E86940F08050F6
:10205000E861E869012700F0805000905C48016861
:10206000C90513D40168834641F480710160FFF70C
:102070003DFB824606E000BFFFF738FBA0EB0A00FD
:1020800064284ED8DBF80000C005F5D5E0680128CB
:102090000AD008B1052813D0286A20F00100286270
:1020A000286A20F0040002E0286A40F0010028625B
:1020B000E06841F2883B98B1FFF718FB82460BE0DD
:1020C000286A40F004002862EEE700BFFFF70EFB2D
:1020D000A0EB0A0159455AD8286A8007F6D50CE0CA
:1020E000FFF704FB824605E0FFF700FBA0EB0A01C7
:1020F00059454CD8286A8007F6D41FB1E86920F00A
:102100008050E861E06988B36968C1F38101022900
:1021100044D00228C6F8608004D0FFF7E7FA0446EE
:1021200038E034E0FFF7E2FA074604E0FFF7DEFAB2
:10213000C01B02282BD828688001F7D4206AB0F58C
:10214000803F05D16868A16820F4003008436860CA
:10215000D4E908010843696821F4741108436860F0
:10216000C6F86090FFF7C2FA044606E025E000BF1B
:10217000FFF7BCFA001B022809D828688001F7D5B0
:102180001BE000BFFFF7B2FA001B022802D90320B0
:10219000BDE8F88F28688001F4D40EE00128F7D05C
:1021A0006868226A00F48031914204D1616A00F4C7
:1021B0007010884201D00120EAE70020E8E7000023
:1021C00000100240000042428004424270000020A1
:1021D0000070004070B5040003D0607C002610B190
:1021E00005E0012070BD2674204600F03DF8022075
:1021F0006074204600F052F8042550BB204600F0E1
:1022000043FE30BB2068416821F007014160A068AF
:1022100020B11448016821F0010101601148001F3C
:102220000168A26821F46071114301606068411C7B
:1022300004D10120FFF79AFC58B1401E2268C0F378
:1022400003419160216880B2C860204600F036FEEC
:1022500008B16574C5E7E67301206073A07360740C
:10226000002070BD306C004008B500680849884205
:102270000DD1FFF775FC0748C16941F00061C161EC
:10228000C069054900F0006000900120086008BDA9
:1022900000280040001002403C04424270B5040097
:1022A0000AD02068416821F008014160FFF71EFA5A
:1022B00005464FF47A7608E0012070BDFFF716FA64
:1022C000401BB04201D9032070BD20684068000760
:1022D000F4D5002070BD10B5401EB0F1807F01D351
:1022E000012010BD4FF0E02460610F21601700F065
:1022F000D1FE0020A06107202061002010BD7047A2
:102300007047000070B590F83C20012A26D00124C7
:1023100080F83C40022280F83D2003685A689D689E
:1023200022F070060A6832435A600D4B02689A42E6
:1023300008D0B2F1804F05D00A4B9A4202D00A4B26
:102340009A4204D1496825F080031943916080F8CE
:102350003D40002180F83C10084670BD022070BD51
:10236000002C0140000400400008004010B50400AB
:1023700003D094F83D0010B107E0012010BD00200B
:1023800084F83C00204600F01FF8022084F83D004D
:10239000211D206800F0F8FD012084F8460084F833
:1023A0003E0084F83F0084F8400084F8410084F83F
:1023B000420084F8430084F8440084F8450084F81F
:1023C0003D00002010BD000008B500680B498842A0
:1023D00012D10B48816941F400618161806900225A
:1023E00000F40060009011461920FFF787FBBDE85C
:1023F00008401920FFF774BB08BD0000002C014005
:102400000010024090F83D10012901D001207047D2
:10241000022180F83D100168CA6842F00102CA60DA
:1024200000680B49884208D0B0F1804F05D00949B7
:10243000884202D00849884204D1816801F007012E
:10244000062903D0016841F00101016000207047B6
:10245000002C0140000400400008004070B5044614
:1024600090F83C000025012817D0012684F83C6034
:10247000022084F83D002068826822F0770222F46E
:102480007F4282600868502838D00DDC20284FD069
:1024900005DC90B3102811D14AE0022070BD30282D
:1024A00046D040280AD13BE060282FD070280DD0BC
:1024B000B0F5805F03D0B0F5005F12D0012584F83D
:1024C0003D60002084F83C00284670BDCB68D1E90F
:1024D0000121206800F094FD2068816841F07701B7
:1024E00009E0CB68D1E90121206800F089FD20686E
:1024F000816841F480418160E1E719E0CA68496878
:10250000206800F08FFD5021206806E0CA68496805
:10251000206800F098FD6021206800F07BFDCEE788
:10252000CA684968206800F07DFD40212068F4E712
:10253000226801461046F0E770472DE9F041044655
:102540000068C66805694FF00007A90713D5B107F1
:1025500011D5F91E0161012020772068806980076C
:10256000204602D0FFF7E8FF04E000F07EF82046A6
:1025700000F07CF82777680716D5700714D5216816
:102580006FF004000861022020772068806910F451
:10259000407F204602D0FFF7CFFF04E000F065F84F
:1025A000204600F063F82777280715D5300713D5A4
:1025B00021686FF008000861042020772068C06956
:1025C0008007204602D0FFF7B7FF04E000F04DF887
:1025D000204600F04BF82777E80616D5F00614D50C
:1025E00021686FF010000861082020772068C0691A
:1025F00010F4407F204602D0FFF79EFF04E000F079
:1026000034F8204600F032F82777E80708D0F007C2
:1026100006D021686FF001000861204600F028F81C
:10262000280608D5300606D521686FF080000861BD
:102630002046FFF764FE680608D5700606D52168B7
:102640006FF040000861204600F01CF8A8060AD58B
:10265000B00608D521686FF0200008612046BDE86B
:10266000F041FFF74DBEBDE8F081704770470000B4
:10267000006800214162024A111F081F01F0A8BD35
:10268000600000207047FEE701684A69D2435205A6
:102690000FD46FF480624A61002140F8301F20227D
:1026A00042738173026942F00402026101730120E6
:1026B00070470020704700002DE9F8430446006889
:1026C0000D46DDE9089701689846164641F4807189
:1026D00001604B4600224FF001112046009700F0A8
:1026E0006BF848B120680068C00502D54FF400704F
:1026F00020640320BDE8F883216805F0FE0008612E
:102700003B464A461549204600F09EF888B92068A5
:102710004169806900903A464946204600F0F2F847
:1027200048B1206C042804D12068016841F400718C
:1027300001600120DEE7F5B2B8F1010F09D0216890
:10274000300A08613A464946204600F0DBF8002886
:10275000E7D1206805610020CCE7000002000100FD
:1027600070B516460D4604461EE02046FFF78CFF66
:1027700008B1012070BD681C16D0FEF7B7FF801BA2
:10278000A84200D885B920684069C04340070BD5EE
:10279000002044F8300F20216173A073216941F0BB
:1027A000200121612073E4E720684069C0434007AD
:1027B000DBD4002070BD00002DE9F0479846174695
:1027C0000D460446C1F30746DDF820902AE000BF1D
:1027D000B8F1FF3F26D0FEF789FFA0EB0901414584
:1027E00002D8B8F1000F1DD12068012E16D08069E3
:1027F00025EA00000004000C12D00020B84211D1DC
:10280000002044F8300F20216173A073216941F04A
:102810002001216120730120BDE8F0874069E7E7CE
:102820000120EBE72068012E0AD0806925EA00002C
:102830000004000C06D00020B842C9D00020EBE70D
:102840004069F3E70120F7E72DE9F047984616467F
:102850000D4604464FF000094FF0200AC1F3074728
:1028600023E020684069C043400515D42068016812
:1028700041F40071016021686FF480604861C4F820
:10288000309084F83DA084F83E90216C41F0040122
:10289000216484F83C9021E0701C06D0FEF726FFEE
:1028A000A0EB0800B04203D816B1012F1FD021E0E1
:1028B0002068012F15D0806925EA00000004000C73
:1028C00018D000BF44F8309F84F80DA084F80E9013
:1028D000216941F02001216184F80C900120BDE8BC
:1028E000F087406925EA00000004000CEAD1206866
:1028F000406901E02068806925EA00000004000CBE
:10290000AFD1ECE770B516460D4604461EE02046F2
:10291000FFF7BAFE08B1012070BD681C16D0FEF7A3
:10292000E5FE801BA84200D885B920684069C043F5
:1029300000060BD5002044F8300F20216173A073EE
:10294000216941F0200121612073E4E7206840699A
:10295000C0430006DBD4002070BD10B5BC2801D3F5
:10296000012210E0622801D302220CE02A2801D3C0
:10297000032208E0142801D3042204E00A2801D32A
:10298000052200E006221A21682002F057FBC0B29F
:1029900010BD10B504464FF47A70844201D9044644
:1029A00002E0042C00D20424B0FBF4F0401EC2B2BA
:1029B0001921682002F042FB6008BDE81040FFF7D3
:1029C000CCBF000070B586B000241C480094019470
:1029D00002940394816941F010018161816901F0E1
:1029E00010010491816941F020018161816901F048
:1029F00020010491816941F008018161816901F040
:102A000008010491816941F00401816180690C4EE3
:102A100000F004004FF4406504900022294630463F
:102A2000FEF75FFE11200095CDE90104032003901D
:102A300069463046FEF760FD06B070BD00100240EA
:102A4000000C01400D4810B50B4901600C49416074
:102A500000214FF480428160C0E90312416181612D
:102A6000C1610162FEF748FE002803D0BDE81040B6
:102A7000FEF73FBD10BD0000005400409804002048
:102A8000A0860100094810B507490160282141606E
:102A90004FF480718160FFF79DFB002803D0BDE8F3
:102AA0001040FEF726BD10BD00280040EC040020B9
:102AB00010B586B000241848009401940294039441
:102AC000049414490594016040F2E731C0E901140F
:102AD00040F2CF21C0E9031444618461FFF746FC52
:102AE00008B1FEF706FD4FF48050009069460A4891
:102AF000FFF7B4FC08B1FEF7FCFC2020CDE904048C
:102B000004A90548FFF7FEFB002801D0FEF7F1FC01
:102B100006B010BD002C014000050020FEE700F0CB
:102B200079B8000010B54FF400610448FEF7D4FDF9
:102B300004460320FEF7CDFC204610BD000C0140EA
:102B400010B5012000F080F8012000F06FF8FFF7C9
:102B5000E9FF0446002000F069F8204610BD2DE989
:102B6000F04107460024012000F06EF80025802681
:102B7000012000F05BF8FFF7D5FF10B126FA05F051
:102B80000443002000F052F86D1CEDB2082DEFD385
:102B9000384600F003F82046BDE8F08110B5044641
:102BA000002000F043F8204600F04EF8012000F02D
:102BB0003DF8002000F03AF8BDE81040012000F098
:102BC00043B870B500240646802525FA04F030404D
:102BD00000D0012000F038F8012000F027F8002094
:102BE00000F024F8641CE4B2082CEED3BDE8704079
:102BF000012000F029B810B5012000F025F80120CF
:102C000000F014F8002000F01FF8BDE8104000208C
:102C100000F00CB810B5002000F016F8012000F00C
:102C200005F8BDE81040012000F00EB810B50246CE
:102C30004FF480610348FEF754FDBDE810400320C7
:102C4000FEF747BC000C014010B502464FF400618E
:102C50000348FEF746FDBDE810400320FEF739BCEF
:102C6000000C0140FEE7000030B40021094C0A4688
:102C7000002004EBC1131A54401CC0B28028FAD3C0
:102C8000491CC9B20829F3D3082130BC002000F048
:102C9000C7B80000740000202DE9F0479146824635
:102CA00001F00706002221E000201AE0114C00EBA1
:102CB000D10504EBC5170AEB0205FF2417F805C080
:102CC00004FA06F82CEA080C07F805C03D44C6F1E2
:102CD000080C15F8807F24FA0CF4A743401C2F70D1
:102CE000C0B2B0EBD30FE1D3521CD2B24A45DBD312
:102CF000BDE8F0877400002010B51721054800F0EA
:102D0000A5F80021084600F007F8BDE81040FFF7DD
:102D1000ABBF00000000002008B501F00F028DF8E5
:102D20000020102242EA11118DF8011040F0B0008D
:102D30008DF802000321684600F088F808BD000005
:102D400008B5062B0DD0082B0AD10B4B03EB021252
:102D5000A2F50072009210235FF0080200F010F854
:102D600008BD064B02EB420203EB4202C03A0823C5
:102D700000920622F2E700009E65000876630008D4
:102D80002DE9F04F994614468A468346FFF784FFA3
:102D90000AF00705002126E000201FE0144A00EB9E
:102DA000DA03099F02EBC31600FB04F30F440BEB9D
:102DB000010213F8078016F802C008FA05F84CEA79
:102DC000080C06F802C03244DB5D12F8806FC5F1D2
:102DD0000807FB401E43401C1670C0B2B0EBD90F71
:102DE000DCD3491CC9B2A142D6D3BDE8F08F0000A4
:102DF000740000202DE9F0411E461546884607461E
:102E0000002408E004FB0670C0B233464146FFF7D9
:102E100097FF641CE4B22A5D002AF3D1BDE8F0817B
:102E200070B50D460446084E0AE000212046FFF723
:102E300073FF06EBC410802100F016F8641CE4B2A6
:102E4000AC42F2D370BD0000740000200EB54FF408
:102E50007A728DE807000123002278210148FEF7ED
:102E60000FFD0EBD980400200EB54FF47A728DE868
:102E700007000123402278210148FEF701FD0EBD25
:102E8000980400207047704770B50446FEF72EFC8A
:102E900005464FF47A7606E0FEF728FC401BB04268
:102EA00001D9032070BD206840688006F4D52068F1
:102EB000416841F010014160002070BD70B50446CA
:102EC0000068416821F010014160FEF70FFC0546E3
:102ED0004FF47A7607E000BFFEF708FC401BB042D3
:102EE00001D9032070BD206840688006F4D5002019
:102EF00070BD7047FEF794BD70B594B02821684648
:102F0000FDF7BAFA14210AA8FDF7B6FA00250F95C5
:102F10000920012410950090119512954FF48030EE
:102F200004940694CDE901050226CDE907604FF42B
:102F3000E01009906846FEF7BDFF08B172B6FEE7E3
:102F40000F20CDE90A064FF48060CDE90C50022134
:102F50000AA80E95FEF7D2FE08B172B6FEE74FF44E
:102F60000070CDE90F400FA8FEF752FE002801D0F7
:102F700072B6FEE714B070BD704700000148FFF75D
:102F8000DCBA000000050020F0B50268194B1A4CAD
:102F90001A4D4FF08047984205D0B84203D0A04266
:102FA00001D0A84203D122F070064A683243984209
:102FB00005D0B84203D0A04201D0A84203D122F4E8
:102FC0004074CA6822434C6922F0800222430260A6
:102FD0008A68C2620A688262984201D10969016303
:102FE000012141610169C90703D0016921F0010193
:102FF0000161F0BD002C01400004004000080040C9
:1030000010B5846842EA032224F47F440A43224331
:10301000826010BD826822F070020A4342F007010C
:103020008160704710B5036A046A24F001040462E9
:10303000846924F0F00444EA021423F00A020A43EB
:103040008461026210BD10B5036A046A24F01004A2
:103050000462846923F0A00324F4704444EA023239
:1030600043EA01118261016210BDFEE7490050EAA6
:10307000C12018BF04204A0D18BF40F0010040F2E3
:10308000FF72B2EB515F08BF40F00200012808BF99
:10309000052070470907090E002804DB00F1E02035
:1030A00080F80014704700F00F0000F1E02080F875
:1030B000141D70472DE9F0414F1E00EBC701044677
:1030C000D1E9000115461E4637F006020DD02A460A
:1030D000334602F0F3FA7F1E04EBC703D3E9002363
:1030E00002F09CF837F00602F1D1022F25D0042F10
:1030F00013D0062F18BFBDE8F0812A46334602F0F0
:10310000DDFAD4E90A2302F089F82A46334602F0B0
:10311000D5FAD4E9082302F081F82A46334602F0B2
:10312000CDFAD4E9062302F079F82A46334602F0B4
:10313000C5FAD4E9042302F071F82A46334602F0B6
:10314000BDFAD4E9022302F069F82A46334602F0B8
:10315000B5FAD4E90023BDE8F04102F05FB80122DE
:1031600003F09DB802F05AB80022134610461146EB
:1031700002F010B9024A0020110703F090B80000D5
:1031800001FDFFFF30380A2801D2012070470020DE
:10319000704700002DE9F04D8D4F21F0004A86B0B8
:1031A00005460C46BA452ADBAAEB070028430AD09D
:1031B0008848824501DC1AD1CDB106B02846BDE869
:1031C000F04DFFF7CCBF844A844B284602F076FAD4
:1031D00007460E46824A834B2846214602F06EFA85
:1031E00006B03A463346BDE8F04D02F017B801206C
:1031F000FDF771F906B0BDE8F04DFFF7B5BF7A48AD
:10320000824542DABAF1795F0BDA2846FFF72EFFE2
:10321000042808BFFFF7AEFF284606B02146BDE8E8
:10322000F08D2A460B46104602F048FA83460246C5
:103230006E480E460B4606217844FFF73BFF5A4680
:10324000334602F03BFA804669488A465A4633467E
:1032500004217844FFF72EFF5A46334602F02EFA37
:1032600000223B4601F0DAFF02460B46404651463B
:1032700002F090F82A46234602F020FA06B02A46C9
:103280002346BDE8F04D01F0C9BF284624F00041B7
:1032900000223D463B4602F00FFB4FF0FF3202F0AA
:1032A000FEFF0646024653480F460B460621784469
:1032B000FFF700FF32463B4602F000FACDE900017D
:1032C0004D4832463B4604217844FFF7F3FE324630
:1032D0003B4602F0F3F900222B4601F09FFF8346A4
:1032E00002913046394601F02BFF804643480D4697
:1032F000504517DCDDE900015A46029B02F04AF80E
:1033000042462B4602F0DAF942462B4601F086FF90
:10331000012202F0C4FF304A304B02F0BFFB304ABA
:10332000304B4CE04FF0000A52460B46404601F04D
:1033300075FFCDE9031052462B461046194602F0A0
:10334000BDF932463B4602F0B7FADDE9033202F03E
:1033500021F806460F46DDE900015A46029B02F0BD
:1033600019F88346009101223046394602F097FF52
:10337000194A1A4B02F0A0FA06460F4601224046AF
:10338000294602F08CFF5A46009B02F097F932461C
:103390003B4602F083FB06460F4601225046294673
:1033A00002F07DFF0E4DDFF858802A46434602F0BA
:1033B00083FA32463B4602F07FFA2A46434602F041
:1033C0007BFA002CD8BF81F0004106B0BDE8F08D3B
:1033D0000000F03F0000F07F075C143326A6913C0C
:1033E000182D4454FB21F93F0000E03FDC4500006C
:1033F000F2450000664500007C4500003333EF3F96
:10340000FB21E93F2DE9F84F04460D4621F000402D
:1034100000917349814211DC7249884201DC06D176
:103420002CB120462946BDE8F84FFFF798BE6E48FC
:10343000002DCCBF6D496E49BDE8F88F6D498142C2
:1034400011DD6D498142D8BF4FF0FF366DDD20465A
:103450002946FFF70BFE042808BFFFF78BFE204626
:103460002946BDE8F88F6549654F25F00045814242
:1034700033DD6449814219DD002632464FF0804336
:103480002046294601F0CAFE80468A46012220468F
:10349000294602F004FF00223B4602F0FFFA4246B2
:1034A000534601F077FF04460D463EE00126002218
:1034B000BA463B462046294601F0B0FE80460F46FC
:1034C000002253462046294602F0E8FA42463B468F
:1034D00001F060FF04460D4627E04B4981421BDDA9
:1034E000DFF828A10226002253462046294602F092
:1034F000E5F800223B4601F091FE80460F4600228F
:1035000053462046294602F0C9FA42463B4601F09E
:1035100041FF04460D4608E0032622462B460020C4
:103520003B4901F037FF04460D4622462B46104624
:10353000194602F0C3F88B46824602460B4602F05B
:10354000BDF807460246334888460B4606217844B4
:10355000FFF7B0FD52465B4602F0B0F882462E48B7
:103560008B463A46434605217844FFF7A3FD3A4689
:10357000434602F0A3F802460B46002E5046594639
:103580000CDA01F04BFE22462B4602F097F801B010
:1035900022462B46BDE8F04F02F08EB901F03EFE08
:1035A00022462B4602F08AF81C4A7A4402EBC603F4
:1035B000D3E9002302F072FA22462B4602F06EFA9B
:1035C000174A7A4402EBC603D3E9002302F074F9E8
:1035D000009A002AB8BF81F00041BDE8F88F0000D2
:1035E000000010440000F07F182D4454FB21F93FE7
:1035F000FB21F9BF0000DC3F0000203E0000F33F4C
:103600000000F03F0000E63F008003400000F83F6C
:103610000000F0BF7E4300003C430000DA4200009F
:10362000A24200002DE9F04D9446CCF1000423F0B5
:1036300000464CEA0404594F46EAD4749A46884638
:1036400021F00042BC4206D8454240EA050442EA65
:10365000D474BC4204D9BDE8F04D6246FFF782BD88
:10366000AAF14055A5F17F6555EA0C040BD0022460
:1036700004EAAA744A4DDFF82CE144EAD87452EA0D
:10368000000B04D00CE0BDE8F04DFFF7BBBE002CF2
:1036900014BF012CBDE8F08D022C30D0032C32D0A9
:1036A00056EA0C0B0AD0BE4220D1BA4209D126F00C
:1036B000804622F080423346114617E000291ADB8B
:1036C00025E0DFF8E4B0FB44002C04BFDBE9000197
:1036D000BDE8F08D012C02BFDBE9000181F0004163
:1036E000BDE8F08D022C0AD0032C0CD0BA4212D1C6
:1036F000B8F1000F0BDA2A482C49BDE8F08D2846B6
:103700002B49BDE8F08D28467146BDE8F08D244870
:103710002849BDE8F08D921B12153C2AC4BF204FEA
:10372000244E10DCBAF1000FBEBF12F13C0F00278F
:103730003E4608DB624601F02DFE21F00041FFF716
:1037400061FE07460E4694B1012C08BF86F0004684
:103750000DD0194A194B022C3846314615D002F0CB
:103760009DF92A46BDE8F04D114B02F097B90022B1
:1037700013463846314601F065FF04BF0220FCF7CE
:10378000AAFE38463146BDE8F08D02F087F92A4698
:10379000BDE8F04D064B02F08FB800000000F07F4E
:1037A000182D4454FB2109C036420000FB21F9BF0B
:1037B000FB210940FB21F93F075C143326A6A13CFD
:1037C00008B560B120208DF8000028208DF8010098
:1037D00030208DF8020038208DF8030004E0A32289
:1037E00004216846FCF740FE6A46042140F69E200C
:1037F00001F03EFC01F05AF908BD00003EB5044658
:1038000002208DF80000CA208DF80100E3208DF819
:10381000020009208DF803006A460421682001F0A7
:1038200027FCA3208DF80000610609D5C0218DF882
:103830000110C8218DF80210C2218DF8031005E097
:103840008DF801008DF802008DF8030014F4C07F9C
:1038500009D0C4218DF80410CC218DF80510C621A3
:103860008DF8061005E08DF804008DF805008DF840
:1038700006008DF808008DF807008DF809006A46EB
:103880000A2140F6A72001F0F3FBA0074FF0D8056E
:1038900003D020208DF8000001E08DF800506A462A
:1038A000012140F6B62001F0E3FBA00601D501207E
:1038B00000E0002000F08EF814F4C07F1ED0E00578
:1038C0000AD5B2208DF800008B208DF80100B620BB
:1038D0008DF802009B2009E0B0208DF800008020C8
:1038E0008DF80100B4208DF8020090208DF80300BF
:1038F0006A46042140F6A22001F0BAFBE1074FF42A
:103900000B6022D0F8218DF800106A46012101F0E9
:10391000AFFBFA21072000F077FA072000F042FA07
:10392000012000F05FFA642000F002FB4FF4FA700F
:1039300000F00EFBC821254800F0FCF9282000F01B
:1039400011FA0A2000F01EFA05E08DF800506A46D0
:10395000012101F08DFBA00703D5D9208DF80000CF
:1039600001E08DF800506A46012140F23D7001F0FF
:103970007FFB600701D5012000E0002000F048F83F
:10398000E00601D5012000E00020FFF719FF104DEF
:1039900044F00800688101F089F80020A8736006EF
:1039A00001D50620A87314F4C07F02D0A87B801D27
:1039B000A87314F0140F02D0A87B1030A873A007CE
:1039C00002D0A87B001DA87300203EBD09E3CA02F7
:1039D000740400200EB54FF4976310B106A107C917
:1039E00001E008A207CA8DE807006A4609211846C7
:1039F00001F03EFB0EBD0000B8AAB38DB4980D35A2
:103A00005D000000B8AAAAAAB088C3C5C70000001C
:103A100008B560B1C0208DF80000C2208DF801000B
:103A2000C4208DF80200C6208DF8030004E08B222C
:103A300004216846FCF718FD6A46042140F69820E8
:103A400001F016FB01F032F808BD0000C8234FF466
:103A50008062024940F6F63000F0E6BED06B000806
:103A60002DE9FF4F89B01746DDE916520024544E68
:103A7000884681462C80A246B07B694600F0A4FFB0
:103A80004FF0FF3B18B158460DB0BDE8F08F70897C
:103A900010F0140F4CD0BDF800109DF8022049BA68
:103AA000090441EA02239DF803100B433B60BDF873
:103AB00004109DF8062049BA090441EA02229DF843
:103AC00007101B140A437A60BDF808109DF80A40DD
:103AD00049BA090441EA04219DF80B40121421431C
:103AE000B960BDF80C409DF80EC064BA240444EAE5
:103AF0000C2C9DF80F4009144CEA040CC7F80CC0BC
:103B00004FEA2C475B43494302FB023207FB071194
:103B100011441024A1F17061B1F1007F04D900F0CB
:103B2000C5FFA5F800A0AEE7298841F4807129807F
:103B30004206694611D50A19A41D13885BBAA8F874
:103B4000003053885BBAA8F80230928852BAA8F8BD
:103B500004202A8842F008022A8010F4C07F11D085
:103B60000A19A41D13885BBAA9F8003053885BBA00
:103B7000A9F80230928852BAA9F804202A8842F0A3
:103B800070022A80800716D00C44E07800F0C0054F
:103B900000F03F016078C00706D0C80801F00701B7
:103BA0003268491C02B190476078000703D57168FC
:103BB00009B1A80988470C9801F084FA002063E74E
:103BC0007404002030B5044613A285B007CA8DE8FE
:103BD00007004FF0FF35C82C16D8C820B0FBF4F111
:103BE000491E080A8DF80C008DF80D1003AA022159
:103BF00040F2162001F03CFA30B96A460C2140F63A
:103C0000C12001F035FA10B1284605B030BD054895
:103C100084810020F9E70000FEF2ABC4AAF1DFDFE7
:103C2000BBAFDFDF740400202DE9FF4104463CA058
:103C300004F00303006802903AA0006803903AA0E1
:103C400006683AA0056802A8C15C8DF80010C4F3AC
:103C5000C101425C8DF80120C4F38112805C8DF8B3
:103C6000020003A8C35C8DF80430415C8DF8051098
:103C7000805C8DF806006A46032140F2264001F080
:103C8000F7F94FF0FF37E0BB01AA032140F22A40C9
:103C900001F0EEF9A8BBCDE9006560070BD59DF8F2
:103CA000000040F001008DF800009DF8040040F095
:103CB00001008DF80400A0060BD59DF8010040F02E
:103CC00001008DF801009DF8050040F001008DF81D
:103CD0000500E0050BD59DF8020040F001008DF8CD
:103CE00002009DF8060040F001008DF806006A46CB
:103CF00003214FF4886001F0BBF910B901AA032138
:103D000000E004E040F2314001F0B2F918B1384669
:103D100004B0BDE8F081064804810020F8E7000007
:103D20004CCD6C000CC92C00365676002646660039
:103D3000740400204FF47A7290FBF2F008B5484307
:103D4000010E8DF80010010C8DF80110010A8DF89C
:103D500002108DF803006A4604214FF4AE7001F0A2
:103D600087F908BD0521B0FBF1F008B5010A8DF80F
:103D700000108DF801006A4602214FF4AD7001F089
:103D800077F908BD0521B0FBF1F008B5010A8DF8FF
:103D900000108DF801006A4602214FF4AC7001F06A
:103DA00067F908BD08B500218DF80010C10702D0E1
:103DB00030218DF80010810705D59DF8001041F0E5
:103DC0000C018DF80010400705D59DF8000040F06B
:103DD00003008DF800006A4601214FF4A47001F041
:103DE00047F908BD08B560B1042800D90420401E79
:103DF0008DF800006A46012140F24F1001F038F9B9
:103E000008BD0120F3E700002DE9FC41054640070D
:103E10004FF0FF367CD0B1F5C86F79D8084602F074
:103E2000B5F83E4901F0B8FF074601A800F030FCA4
:103E30009DF80400022806D004280DD008282ED0B2
:103E4000102865D134E00E21384602F056FA02F00F
:103E500065F884B2324907E00D21384602F04DFA88
:103E600002F05CF82F4984B2384602F0A3F802F061
:103E700055F8210A8DF8001080B28DF80140010A32
:103E80008DF802108DF80300E8076C4620D022461A
:103E900002214FF4EA7001F0EBF8C8BB11E00C21ED
:103EA000384602F02AFA02F039F884B21E49DBE7FC
:103EB0000B21384602F021FA02F030F884B21B4997
:103EC000D2E7A21C02214FF4927001F0D1F8F8B9A8
:103ED000A8070DD56A4602214FF4EC7001F0C8F82E
:103EE000B0B9A21C02214FF4947001F0C1F878B966
:103EF000680710D56A4602214FF4EE7001F0B8F859
:103F000030B9A21C02214FF4967001F0B1F810B143
:103F10003046BDE8FC810020FBE70000000048437C
:103F2000000040460000C045000040450000C0447D
:103F30000521B0FBF1F008B5010A8DF800108DF8ED
:103F400001006A4602214FF4EF7001F091F808BDBC
:103F50000521B0FBF1F008B5010A8DF800108DF8CD
:103F600001006A4602214FF4ED7001F081F808BDAE
:103F700000B5024600F00DF80346D01C00F009F829
:103F800043EAC003901D00F004F843EA801080B2B9
:103F900000BD90F90010002902DD4FF000007047CD
:103FA00002DA4FF00400704790F90110002902DD99
:103FB0004FF00100704702DA4FF00500704790F9AA
:103FC0000200002802DD4FF00200704702DA4FF0D5
:103FD000060070474FF00700704700001CB5FDF762
:103FE00027FDFEF789FFFEF7EDFCFEF72BFDFEF740
:103FF00049FDFEF75DFDFEF77FFE00F077F800F06B
:1040000001FB2648FEF7FEF9082325A230210020F7
:10401000FEF7F0FE08210520FEF702FF244C254F95
:10402000DFF89480206801F023FE02460B4623A1AE
:104030002548FCF7D9F800210823234A0846FEF753
:10404000D9FE606801F014FE3A88009202460B46E1
:104050001EA11D48FCF7C8F808231B4A10210020A8
:10406000FEF7C8FED8F8000001F002FE05460E4635
:10407000A06801F0FDFDCDE9005602460B4617A1F0
:104080001148FCF7B1F808230F4A20210020FEF761
:10409000B1FE08210020FEF7C3FEC3E700050020A3
:1040A000496E697420537563636573730000000083
:1040B00058000020480000205400002070697463FC
:1040C000683A252E3166000084040020726F6C6C03
:1040D0003A252E3166202533640000007961773A55
:1040E000252E316620252E326600000008B5FEF729
:1040F00016FD80226B21682000F0A0FF00226B21BA
:10410000682000F09BFF18221B21682000F096FF1A
:1041100018221C21682000F091FFC820FEF739FC0E
:1041200000223821682000F089FF00226A216820DF
:1041300000F084FF00222321682000F07FFF80220E
:104140003721682000F07AFF6A467521682000F068
:1041500017FC9DF80000702801D0012008BD012245
:104160006B21682000F06AFF00226C21682000F0BB
:1041700065FFC820FEF70DFC002008BD2DE9F041C9
:10418000124C20F00101002594F8240010B1002009
:10419000BDE8F081A07A4FF0FF3668B10840277C77
:1041A0002074884200D0354641B1012000F09CFFC8
:1041B00000F07CFC38B127743046E9E7207D00B17F
:1041C000012000F091FF2846E2E7000018000020DF
:1041D0002DE9F04F99B00D46064615A90FA8CDE977
:1041E0000001144614AB0BAA12A910A8FFF738FC63
:1041F00018B1012019B0BDE8F08FBDF83C00C00532
:104200007DD5FB486FF01D07007800280B9877D00C
:1042100001F0A4FE394602F070F803900C9801F00A
:104220009DFE394602F069F882460D9801F096FE2F
:10423000394602F062F881460E9801F08FFE394649
:1042400002F05BF88346EB49306801F0B3FE01F001
:104250000FFDCDE905100121039802F04EF8494603
:104260000A9001F0A7FE07464FF04041504601F08A
:10427000A1FE5946169001F09DFE394601F024FD3D
:1042800001F0F6FCFEF786FF4FF06632DA4B01F0E4
:1042900015FA4FF0C042D94B01F010FA0746884694
:1042A000306801F0E5FC3A46434600F0B7FFDDE92F
:1042B000053200F0B3FF4FF0FF3201F0F0FF00F0E5
:1042C0007BFF3060CB49286801F074FE01F0D0FC20
:1042D000074688460121484602F00FF849461790E4
:1042E00001F068FE06465146169801F063FE31461D
:1042F00001F02CFF4FF07E5101F0E6FC01E07FE180
:104300008FE001F0B5FCCDE9071051460A9801F0A5
:1043100051FE06465946179801F04CFE314601F011
:10432000D3FC01F0A5FCDDE90732FFF77BF94FF084
:104330006632B14B01F0C2F94FF0C042AF4B01F011
:10434000BDF908900E46286801F092FC3346089AA1
:1043500000F064FF3A46434600F060FF4FF0FF3242
:1043600001F09DFF00F028FF2860A249206801F0BD
:1043700021FE01F07DFC884605465946084601F0BD
:1043800019FE49460590084601F014FE07465146BD
:10439000084601F00FFE03990646084601F00AFEA2
:1043A000314601F091FC394601F0D0FE059901F04B
:1043B000CDFE01F05DFC0E4607465946039801F01C
:1043C000F9FD83464946504601F0F4FD594601F097
:1043D0007BFC012101F091FF01F04AFC3A46334693
:1043E000FFF720F94FF06632834B01F067F94FF089
:1043F000C042824B01F062F907460E46206801F088
:1044000037FC3A46334600F009FF2A46434600F09F
:1044100005FF4FF0FF3201F042FF00F0CDFE2060BB
:10442000E4E001F09BFD394601F067FF03900C9832
:1044300001F094FD394601F060FF82460D9801F0CD
:104440008DFD394601F059FF81460E9801F086FD39
:10445000394601F052FF02906649306801F0AAFD2A
:1044600001F006FC83460F460121039801F045FF49
:104470004946099001F09EFD80464FF0404150466C
:1044800001F098FD0890029901F094FD414601F079
:104490001BFC01F0EDFBFEF77DFE4FF06632564B44
:1044A00001F00CF94FF0C042544B01F007F95A46A5
:1044B0003B4600F0B3FE00F07FFE30604D492868B7
:1044C00001F078FD01F0D4FB80460F4601214846FB
:1044D00001F013FF49460A9001F06CFD0646514673
:1044E000089801F067FD314601F030FE4FF07E5133
:1044F00001F0EAFB01F0BCFB0E460890514609981A
:1045000001F058FD834602990A9801F053FD59467F
:1045100001F0DAFB01F0ACFB3346089AFFF782F8B2
:104520004FF06632344B01F0C9F84FF0C042334BC4
:1045300001F0C4F842463B4600F070FE00F03CFE3D
:1045400028602C49206801F035FD01F091FB0E46F2
:1045500002998046084601F02DFD834649460846EB
:1045600001F028FD07465146084601F023FD039956
:104570000546084601F01EFD294601F0A5FB394617
:1045800001F0E4FD594601F0E1FD01F071FB0D463B
:104590000746DDE9021001F00DFD8346494650460D
:1045A00001F008FD594601F08FFB012101F0A5FE45
:1045B00001F05EFB3A462B46FFF734F84FF06632C7
:1045C0000D4B01F07BF84FF0C0420C4B01F076F838
:1045D0004246334600F022FE00F0EEFD2060044823
:1045E0004188491C41808188491C8180002001E666
:1045F000440000209A99993E66A64C406666E63FC4
:104600000220F7E510B500F061F810F0FF0403D0C8
:10461000FCF76FFF0A2010BD782000F0B3FC08B152
:10462000012010BD7820FFF7A9FD08B1022010BDC0
:10463000C82000F067FC08B1032010BDFFF706FAA0
:1046400008B1042010BD1148FFF792FCFFF7ECFA07
:1046500008B1052010BD40F27B10FFF7CFF808B17C
:10466000062010BDC820FFF7ADFA08B1072010BD25
:10467000012000F06DFB08B1092010BD00F02EFDF7
:1046800008B1082010BD204610BD00004A000020DF
:104690000D494A7A42B1012A08D0022A0FD0032AD2
:1046A0000FD04FF0FF307047022200E0042202706A
:1046B000C97C11B11106C90D017000207047082294
:1046C000F5E71022F3E70000180000207CB52C4C21
:1046D00080208DF8000020686B460122417D6068D3
:1046E000007800F07FF84FF0FF36E8BB6420FCF75D
:1046F000E5FE00258DF8005020686B460122417DC3
:104700006068007800F06EF870BBE574FF2004F874
:104710000A0F310C04F8020C04F8010C6070A1803F
:10472000A07120720120A07020766576E572A572D6
:10473000E56025616561A576E576A5834FF4FA60AD
:1047400000F042FB80B9022000F060FA60B92A2034
:1047500000F0A2FB40B9642000F0D4FB20B9002097
:10476000FFF70CFD00B900E003E0002000F082FA42
:1047700008B130467CBD002000F004FC00207CBD68
:10478000180000202DE9F0411E4614460F4605464C
:10479000FEF731FA6806000EFEF713FAFEF7D0F9BD
:1047A0003846FEF70EFAFEF7CBF9FEF724FA0120A1
:1047B00000EB4500C0B2FEF704FAFEF7C1F9002590
:1047C000671E08E0BD4201D1012000E00020FEF795
:1047D000C6F970556D1CA542F4DBFEF71BFA0020EC
:1047E000BDE8F0812DE9F0411E4615460F4604460E
:1047F000FEF701FA6006000EFEF7E3F9FEF7A0F9F6
:104800003846FEF7DEF9FEF79BF9002405E0305D3F
:10481000FEF7D7F9FEF794F9641CAC42F7DBFEF71C
:10482000F9F90020BDE8F0812DE9FF4FDFF8948011
:10483000064685B098F8250015460F464FF0FF391B
:10484000B0BBAFB3002420E0301B102800DD1020E7
:1048500080B283463A1901469246204600F008FC91
:1048600030BB6A465946204600F0F6F800BB504679
:104870005A466946FBF7CCFD20B16FF0010009B044
:10488000BDE8F08F04EB0B0084B2B442DCD3280AFD
:104890008DF810008DF81150D8F80000444604AB94
:1048A000417FD8F8040002220078FFF79BFF08B18F
:1048B0004846E4E7012084F825000898E0840020B9
:1048C000DDE70000180000202DE9F84305464FF011
:1048D000FF39282844D80727284C00267DB101201D
:1048E00000F0A8FA20208DF800004FF00108012DFB
:1048F00017D0052D18D88DF8018005201FE0002065
:1049000000F098FA8DF800608DF8017020686B4611
:104910000222417D60680078FFF764FF00BB2675C6
:1049200029E08DF80160E8E7142D04D802208DF805
:1049300001000A2003E003208DF80100142000F09C
:10494000ABFA9DF801006B4607EB80108DF8010073
:1049500020680222417D60680078FFF743FF10B1B4
:104960004846BDE8F8830820A072267384F81480B6
:104970000020FFF703FC0020F3E7000018000020F0
:1049800070B515460E460446FEF735F96006000E72
:10499000FEF717F9FEF7D4F83046FEF712F9FEF7E6
:1049A000CFF8FEF728F9012000EB4400C0B2FEF773
:1049B00008F9FEF7C5F80120FEF7D1F82870FEF7D8
:1049C00029F9002070BD00002DE9F843214C06466E
:1049D000174694F8240089464FF0FF3890B3A07A28
:1049E00080B320686B460222017B60680078FFF785
:1049F000C9FE38BBBDF8000045BAB54202D200205E
:104A000038701FE060684188B5EB510F11D92168FB
:104A100000786B46C97C0122FFF7B4FE90B99DF87F
:104A20000000C00605D500F041F86FF00100BDE8B8
:104A3000F8832068F2B24B46417B60680078FFF74C
:104A4000A1FE08B14046F2E7B5FBF6F0401E387013
:104A50000020ECE718000020F8B516000D464FF0D6
:104A6000FF371FD0104CA17AE1B1010A8DF8001078
:104A7000C0B28DF80100411960684289914211D895
:104A8000216800786B46C97E0222FFF7ABFE48B969
:104A90002068EAB23346017E60680078FFF772FE54
:104AA000002800D03846F8BD18000020F8B5564C54
:104AB0004FF0FF36A07A00287DD000258DF80050F9
:104AC00020686B460122417C60680078FFF78AFE0F
:104AD000002870D120686B46012241796068007817
:104AE000FFF780FE002866D120686B46012201791D
:104AF00060680078FFF776FE00285CD194F8240007
:104B0000E0B30C208DF8000020686B46012201798B
:104B100060680078FFF766FE002872D13220FCF74B
:104B2000CDFCC0208DF80000A07AC00702D0E020A4
:104B30008DF8000020686B460122017960680078DA
:104B4000FFF750FE00285CD1607C18B102208DF880
:104B5000000001E08DF8005020686B460122417C86
:104B600060680078FFF73EFE28BB8DF80050206893
:104B70006B4601224179606800783EE0FFE704203F
:104B80008DF8000020686B4601220179606800788A
:104B9000FFF728FE78B9A07C90B9A07AC0070FD0A3
:104BA0005FF060008DF8000020686B4601220179FB
:104BB0006068007800E024E0FFF714FE08BB01E025
:104BC0004020EFE73220FCF779FC607C18B101202F
:104BD0008DF8000001E08DF8005020686B4601223E
:104BE000417C60680078FFF7FDFD50B92068064BF6
:104BF00001224179606810330078FFF7F3FD002847
:104C000000D03046F8BD00001800002038B5184C20
:104C10004FF0FF35A17A19B3022806D0042806D038
:104C200008280ED010281BD10DE0002000E008203D
:104C30008DF80000607A9DF80010B0EBD10F04D021
:104C400005E01020F4E71820F2E7002038BD2068C6
:104C50006B460122C17960680078FFF7C3FD08B197
:104C6000284638BD9DF80000C0086072EDE70000DE
:104C700018000020F8B5354C0546A07CA84201D1AB
:104C80000020F8BD31484FF0FF366B46D0E90010E8
:104C90004FF001020979007835B3FFF773FD70BB5F
:104CA0009DF800006B4620F020008DF80000206881
:104CB0000122017960680078FFF794FDF8B90320BC
:104CC000FCF7FCFB02208DF8000094F8220078B37A
:104CD00082202BE020686B460122C17D606800784D
:104CE000FFF780FD58B92EE0FFF74CFD38B9A07AE8
:104CF000C0079DF8000003D040F0200002E00CE067
:104D000020F020008DF8000020686B460122017918
:104D100060680078FFF766FD08B13046F8BD0320F3
:104D2000FCF7CCFB94F8220000B180208DF8000045
:104D300094F823000028CDD09DF8000040F030000A
:104D40008DF80000C6E7A5749AE70000180000205F
:104D500038B51C4C94F8241081421DD0002500B3B6
:104D600094F82500D0B1002000F0BEF90020FFF734
:104D700081FFE08C00F0C6F88DF8005060686B464B
:104D8000012200782321FFF72DFD012084F8240063
:104D900000F0AAF9FFF78AFE002038BD4FF0FF307F
:104DA00038BD002000F0A0F9207C8DF8000060687C
:104DB0006B46012200782321FFF714FD84F824506C
:104DC000E8E700001800002038B5194C4FF0FF3517
:104DD000A17A31B3FA2809D0B0F5FA7F08D0B0F53E
:104DE0007A7F0FD0B0F5FA6F1BD10DE0002000E004
:104DF00008208DF80000207A9DF80010B0EBD10F4C
:104E000004D005E01020F4E71820F2E7002038BDB8
:104E100020686B460122817960680078FFF7E2FC28
:104E200008B1284638BD9DF80000C0082072EDE7A3
:104E30001800002038B5174C054694F82300A84206
:104E400001D1002038BD0DB1302000E000208DF8E8
:104E50000000A07C28B19DF8000040F002008DF811
:104E6000000094F8220028B19DF8000040F0800076
:104E70008DF8000020686B460122C17D60680078D3
:104E8000FFF7B0FC10B14FF0FF3038BD84F823506D
:104E9000D7E700001800002038B5194C4FF0FF3557
:104EA000A17A31B3BC2801D3012010E0622801D3DC
:104EB00002200CE02A2801D3032008E0142801D3A3
:104EC000042004E00A2801D3052000E006208DF824
:104ED0000000E07A9DF80010884201D1002038BD22
:104EE00020686B460122817860680078FFF77AFCC1
:104EF00008B1284638BD9DF80000E072EEE70000DA
:104F000018000020F8B51E4D04464FF0FF37A87A70
:104F100048B395F8240030BB287D4FF47A7648B129
:104F200064B1282C03D82046FFF7CEFC26E00020F1
:104F3000FFF7CAFC042C05D2042406E00020FFF78A
:104F4000C3FCF9E7B44200D93446B6FBF4F0401E86
:104F50008DF8000028686B46012241786868007867
:104F6000FFF740FC08B13846F8BD9DF80000401C32
:104F7000B6FBF0F0E8814008FFF78EFF0020F8BD97
:104F800018000020F8B5054610F0700F4FF000062D
:104F900001D0012004E015B18DF8006002E040204E
:104FA0008DF80000244C6B4601222068417D60682A
:104FB0000078FFF717FC4FF0FF3760BB9DF800004B
:104FC00020F0400020738DF80060680602D40420B1
:104FD0008DF80000A80605D49DF8000040F00200FE
:104FE0008DF80000E80605D49DF8000040F00100AF
:104FF0008DF80000280705D49DF8000040F0380027
:105000008DF8000020686B460122817D6068007881
:10501000FFF7E8FB10B1A6723846F8BD25B1082DA0
:1050200002D00020FFF706FFA57226753220FCF79C
:1050300045FA0020F8BD00001800002070B51546A4
:105040000E460446FDF7D7FD6006000EFDF7B9FDDC
:10505000FDF776FD3046FDF7B4FDFDF771FD2846FE
:10506000FDF7AFFDFDF76CFDFDF7D4FD002070BD31
:10507000F8B516000D464FF0FF371FD0104CA17A3F
:10508000E1B1010A8DF80010C0B28DF8010041199C
:1050900060684289914211D8216800786B46C97EC8
:1050A0000222FFF79FFB48B92068EAB23346017E2F
:1050B00060680078FFF796FB002800D03846F8BDFE
:1050C0001800002004490968034A121D126802EB07
:1050D0000141016070470000102800400149002094
:1050E0000870704744000020F8B5144C0146224671
:1050F00094F82460D2E9000200235D1E56B179B114
:10510000022111E0417C10786B460122FFF76AFB17
:1051100068B90EE0A67A56B111B1617C61B902E0BE
:105120008DF80030EEE701218DF80010EAE72846FF
:10513000F8BD9DF8000060740020F8BD1800002044
:105140002DE9F04106460F4600F0C2FB041E0D4655
:1051500018BF0120284320F00040C0F17F6000F11B
:10516000E040C00F0ED0301C18BF0120384320F0A3
:105170000040C0F17F6000F1E040C00F04BF01209B
:10518000FBF7A9F920462946BDE8F08110B50029B2
:105190000AD00878002807D005487844FBF77CFD42
:1051A000002801D0002010BD0248784410BD000046
:1051B000222800001A28000021F00042A2F16052CB
:1051C000B2F5801F01F0004328BFD2F17F6C0BD9EC
:1051D0005FEA001C43EAC20242EB507018BF7047FE
:1051E00028BF20F001007047B2F5801FBCBF1846F1
:1051F00070474FEA410C1CF5001F02D2084600F030
:10520000A0BF70B500F004FB00000089FFF7F6BFF7
:105210004FF00040A0F580007047000010B591EA03
:10522000030F48BF83F0004300F14084841A71EB00
:10523000030C05D2121943EB0C03001B61EB0C01AC
:10524000DFF824E14FEA1154A4EB135C1EEA430F8C
:1052500018BF9EEA445F73D023EA0E03DCF1200EF0
:1052600021EA045143F4801332D322FA0CFE10EBEE
:105270000E0023FA0CFE41EB0E01CCF1200E03FAD6
:105280000EFE10EB0E0051F10001B1F5801FCCF1C4
:10529000200E32D201EB045112FA0EF2BDE810409A
:1052A00058BF7047401C38BF5FEA420218BF7047C2
:1052B000002814BF20F0010041F100014FEA410332
:1052C00013F5001F38BF7047A1F1C04100F0EEBADE
:1052D000012A43EB0302ACF1200CDCF11F0E32BFBC
:1052E0004FF0000E23FA0CF310EB030041EB0451D6
:1052F000B4EB115FD0D0A1EB045101F58011490846
:105300005FEA300001EB04510ED350F1000038BFCA
:1053100012FA0EFE08D1BDE81040C9E7401C38BFA4
:105320005FEA4202CAD1C3E7BDE810404FEA410339
:1053300013F5001F38BF7047A1F1C04100F0B6BAA5
:105340009EEA445F08D011EA5E0FBDE8104004BF3A
:1053500001F0004100207047BDE8104070B500F03A
:1053600057FA00BF64FBBE3E0000E0FF02494FF069
:10537000000000F062BF00BF0000F87F491058BF76
:10538000C1F140415B1058BFC3F140438B42EFF382
:10539000008070472DE9C04130B4DFF8A0C23CEA7C
:1053A000111418BF3CEA131400F0EC8081EA0305E5
:1053B0001CEA111444EAD57418BF1CEA131500F056
:1053C000C780A4EB05044FF0004545EAC12145EA3A
:1053D000C32341EA505143EA525304F17F74994286
:1053E00004F500344FEAC0204FEAC22208BF9042C1
:1053F00000F09C804FEA13650FF24016765D4FEA8D
:10540000134506FB05F7C7F1807706FB07F74FEA60
:10541000D737A7FB03687642C8F58038A7FB06CECE
:1054200038BFA8F1010807FB08E64FF0000EA6FB05
:10543000028CE6FB03CEDCF1000CCEF1004E38BF4F
:10544000AEF1010EA6FB0C584FF000074FF000051F
:10545000E6FB0E87A1FB08C6A0FB07CE16EB0E06E7
:1054600045F10005E1FB076515F1E04E7EBFA4F5AF
:1054700080345FEA46066D4116F1800745F100056C
:105480004FEA17274FEA066647EA0567A6F1DE46A8
:10549000B6F1805F4FEA15251FD9384624F0010C7C
:1054A00005EBC471BCF1FE6F01EB0C1102D8F0BC2E
:1054B000BDE8008124425CBF01F5801E9EEAC47FE6
:1054C00002D4F0BCBDE80081244238D4F0BCA1F184
:1054D000C041BDE8004100F0E9B94FEAD22242EAFA
:1054E00043524FEAD323A7FB02864FEAD02040EA7B
:1054F000415007FB03661EEA0E0F4FEAD12105FB60
:10550000026658BFA6EB0056B6EB00564FEA520EA5
:105510004EEAC37E18EB0E0E56EB530EBDD518EBBC
:1055200002085E417F1C55F10005B6E74FF4801577
:105530004FF000074FF000064FF00008ADE7F0BC59
:105540004FF0000001F1C04101F00041BDE80081D1
:1055500011EA0C1F0CEA131500D00CE013EA0C1F23
:1055600000F025804FF00000F0BC81EA030101F05B
:105570000041BDE80081F0BCBDE8004181EA0301C3
:1055800000F094B9F0BCBDE8004170B500F040F9FE
:10559000097EFC3E00F007B881EA03014FF00000ED
:1055A00001F00041704781EA030100F07FB9F0BCCF
:1055B000BDE800414FF0000021497047FFFDFBF9B5
:1055C000F7F5F4F2F0EEEDEBE9E8E6E4E3E1E0DE36
:1055D000DDDBDAD8D7D5D4D3D1D0CFCDCCCBCAC8A8
:1055E000C7C6C5C4C2C1C0BFBEBDBCBBBAB9B8B7CF
:1055F000B6B5B4B3B2B1B0AFAEADACABAAA9A8A8C2
:10560000A7A6A5A4A3A3A2A1A09F9F9E9D9C9C9B8F
:105610009A9999989797969595949393929191903A
:105620008F8F8E8E8D8C8C8B8B8A898988888787CB
:105630008685858484838382828181800000FF0740
:105640000000F87F51EA030C17D41CF5801F58BFE7
:10565000BCF5801F00F10680994218BF704708BF53
:105660009042704707D711F5801F58BF13F5801F70
:1056700019D499427047894270471CF5801F08D59C
:10568000BCF5801FF7D58B4218BF704708BF824218
:1056900070474FF4001C1CEB410F38BF1CEB430F4D
:1056A00001D28B42704770B500F0B2F892244900E5
:1056B0004FF000514FF08053FFF760BEDFF848C154
:1056C00070B51CEA111E1EBF1CEA13159EEA0C0FD2
:1056D00095EA0C0F00F06F8081EA030423EA4C1373
:1056E0004EEAD47E21EA4C1141F4801143F4801338
:1056F000AE44A1FB024CA0FB0365AEF17F7E3619E0
:1057000055EB0C05A1FB034C4CF10003A0FB021C64
:1057100016EB0C06654153F10003094218BF46F031
:10572000010613F4007F0BD14FEA03314FEA053035
:10573000340341EA155140EA16506FF003020AE0C3
:105740004FEAC3214FEAC520F40241EA555140EA2D
:1057500056506FF0020202EB2E4201EB025585EA31
:10576000CE710AD05FEA440C18BF24F0004450F117
:10577000000041F1000120EAD47040F2FE7C624555
:1057800000D270BDA84214BF4FF080444FF0404497
:10579000002E08BF0024BEF1806FA8BFA1F1C04158
:1057A000BDE8704080F282804FF0000001F1C041FE
:1057B00001F0004170479EEA0C0F0CEA131518BF68
:1057C00095EA0C0F06D04FF0000081EA030E0EF0B0
:1057D000004170BD00F01CF88900013E00F007B8E0
:1057E00000F009B84FEA430C5FEA5C5C08D081EA3C
:1057F000030100F05BB84FEA410C5FEA5C5CF6D154
:105800004FF00000014970470000FF070000F87FDB
:105810000EF1020E2EF0030E5EF8046B364205D434
:10582000012A43EB030515F5001F12D8012841EBAF
:10583000010C1CF5001F0CD80ED14FEAD17C15F5D8
:10584000001F0CEB4C0C0CF1020C08BF4CEBD37C92
:1058500004E04FF0080C01E04FEAD37C0CEB4C0560
:1058600026FA05F606F00706B6F1040C06D20EEB92
:10587000860CBDE870404CF0010C6047DFE80CF08E
:10588000090B02024FF000414FF00000A1F500218A
:1058900070BD19461046012851EB010418BFD4F51C
:1058A000001484BF002001F0004170BD0808A0F57D
:1058B00000114FEA3101704791EA030F10B581F0F2
:1058C00000413FF5B3AC83F0004300F0EFB80000B7
:1058D0002DE9F04101F5801CBCF5001FC0F2C3802A
:1058E0004FEA115C21EA0C510CF1FD0C41F48011DE
:1058F0005FEA5C0C0CF5C07C01D3400049413DA43B
:10590000890241EA905187028E0E0A0CA45D04FBC5
:1059100004F602FB06F6C6F14046A4FB0662F60D4D
:1059200046EA422606FB06F4A4FB01235242C3F1D9
:10593000404338BF5B1EA6FB02420024E6FB032463
:10594000D20B42EA4446A6FB0623A1FB02E2A3FBDC
:1059500007E4A4184FF0000252F10002E3FB0142F9
:105960006442C2F1404E38BFAEF1010EA6FB0423E3
:105970004FF00002E6FB0E32A2FB03464FF000049C
:10598000B61954F10004E2FB0264A1FB06E6A4FB95
:1059900007E816EB08064FF0000858F10008E4FB92
:1059A00001687642C8F1405838BFA8F10108A2FB4F
:1059B00006E4A3FB08E52D194FF0000454F10004A0
:1059C000E2FB0854A1FB05E6A7FB04E818EB060878
:1059D0004FF0000656F10006E1FB048618F12005A1
:1059E00056F10006A809A8F11B08B10908F03F0804
:1059F000B8F10A0F40EA86601CD901EB0C51BDE8F2
:105A0000F08100BFFCF5EEE8E2DDD8D3CFCBC7C311
:105A1000C0BDB9B6B4B1AEACA9A7A5A3A19F9D9BCB
:105A20009A9896959392908F8D8C8B89888786858E
:105A300084838281A0FB006800FB01F208EB42082E
:105A4000B8EB872807D5341858EB0104D5D5401C8E
:105A500051F10001D1E7341A78EB0104CDD4401E96
:105A600071F10001C9E75FEA4C0C5FEA9C5C0DD163
:105A700005D34FF0000001F00041BDE8F081BDE822
:105A8000F04170B5FFF7C4FE6DDBFFBEBDE8F0412D
:105A90004FF00000004970470000F87F10B591EA10
:105AA000030F48BF83F000433FF5C0AB841A71EB8E
:105AB000030C07D212198CF0004C43EB0C03001BB3
:105AC00061EB0C01DFF8A4E14FEA1154A4EB135C85
:105AD0001EEA430F18BF9EEA445F00F0B08023EA3D
