:020000040800F2
:10000000D0170020A901000819300008E3290008D2
:10001000792E000891140008473500080000000000
:10002000000000000000000000000000A7320008EF
:10003000931400080000000039320008D133000892
:10004000C3010008C3010008C3010008C301000880
:10005000C30100083B320008C3010008C3010008C7
:10006000C3010008C3010008C3010008C301000860
:10007000C3010008C3010008C3010008C301000850
:10008000C3010008C3010008C3010008C301000840
:10009000C3010008C3010008C3010008C301000830
:1000A000C301000859340008C3010008C301000857
:1000B000C3010008C3010008C3010008C301000810
:1000C000C3010008C3010008C3010008C301000800
:1000D000C3010008C3010008C3010008C3010008F0
:1000E000C3010008C3010008C301000800F002F8C2
:1000F00000F04AF80AA090E8000C82448344AAF178
:100100000107DA4501D100F03FF8AFF2090EBAE875
:100110000F0013F0010F18BFFB1A43F0010318473B
:100120006C8000008C800000103A24BF78C878C131
:10013000FAD8520724BF30C830C144BF04680C60ED
:10014000704700000023002400250026103A28BF35
:1001500078C1FBD8520728BF30C148BF0B60704739
:10016000662906F06284642900F0668000207047EA
:100170001FB500F04BFC04000020002105F0ECFB53
:10018000E0601FBD10B510BD00F044FD1146FFF743
:10019000EFFF04F091F900F062FD03B4FFF7F2FF06
:1001A00003BC00F0A7FD000009488047094800474C
:1001B000FEE7FEE7FEE7FEE7FEE7FEE7FEE7FEE717
:1001C000FEE7FEE704480549054A064B7047000074
:1001D00055340008ED000008D0110020D017002091
:1001E000D0130020D0130020B2F120030AD5C2F1B1
:1001F000200320FA02F001FA03F321FA02F140EAA7
:100200000300704721FA03F04FF00001704700002F
:100210000FB41CB5074B06AA7B44694600900598AD
:1002200000F0B9FB0020694600F0C8FB1CBC5DF87B
:1002300014FB0000A10700002DE9F0410646002450
:1002400010687529314616A510D0AFF3008000283C
:1002500002DA404213A507E031688A0701D512A5EA
:1002600002E0490704D511A5012401E0AFF30080A5
:1002700000210A2206F1240709E0B0FBF2FCB0FBE2
:10028000F2F302FB1C00303078541846491C002859
:10029000F3D123462A463046BDE8F04100F00DB9BF
:1002A000000000002D0000002B00000020000000D6
:1002B0002DE9F05F894604464FF0000ADFF824B1CB
:1002C000FB44C0F820A02046E168884700287DD084
:1002D000252806D0D4E901219047206A401C2062DD
:1002E000F1E700255F462046E1688847202806465A
:1002F00007DB312E05D2B81910F8200C08B10543E0
:10030000F1E7A80701D525F00405C4F81CA00027D3
:10031000C4F818A02A2E09D0304603F0A1F938B34A
:1003200004EB8708303EC8F8186019E059F8041B40
:10033000204604EB87029161E1688847012F064659
:1003400018D1E069002820DA25F020051DE0D8F852
:10035000180000EB800006EB40003038C8F81800A9
:100360002046E1688847064603F07AF90028EED176
:10037000012F0AD02E2E08D12046E16888477F1C25
:100380000646022F45F02005C4DBA069002803DAE9
:10039000404245F00105A061E80701D025F01005B5
:1003A000A6B1A6F14100192802D8203645F400650F
:1003B0004A463146204625604D46FFF7D1FE60B1E2
:1003C000012807D0ED1D25F0070000E007E000F14F
:1003D000080978E705F1040975E730467AE7206AED
:1003E000BDE8F09F327D000040EA010310B59B0795
:1003F0000FD1042A0DD310C808C9121F9C42F8D08F
:1004000020BA19BA884201D9012010BD4FF0FF303F
:1004100010BD1AB1D30703D0521C07E0002010BD55
:1004200010F8013B11F8014B1B1B07D110F8013BE1
:1004300011F8014B1B1B01D1921EF1D1184610BDC2
:1004400002F0FF0343EA032242EA024200F0BDBA8F
:100450004FF0000200B5134694469646203922BF5D
:10046000A0E80C50A0E80C50B1F12001BFF4F7AFA8
:10047000090728BFA0E80C5048BF0CC05DF804EB8A
:10048000890028BF40F8042B08BF704748BF20F8F8
:10049000022B11F0804F18BF00F8012B70477047F6
:1004A0007047704710B500F0B5FA006810BD10B580
:1004B000044600F0AFFA046010BD2DE9F0470D4688
:1004C00099469246044600F124080168880604D53E
:1004D000E06921F01001216000E00120A84201DD67
:1004E000471B00E00027A1697A1902EB0900081AEE
:1004F000A0612078C00602D42046AFF30080002619
:1005000008E0D4E901211AF806009047206A401C4F
:10051000761C20624E45F4DB2078C0060AD52046C2
:10052000AFF3008006E0D4E9012130209047206A33
:10053000401C2062381EA7F10107F4DC07E0D4E973
:10054000012118F805009047206A401C2062281EEF
:10055000A5F10105F3DC2046AFF30080207800060A
:1005600002D50220BDE8F0870120FBE770472DE9A6
:10057000FF4F0C461E464FF0FF378BB0D2E900010B
:10058000DDF860800A908A46C1F30A5505B93D46F8
:10059000002108464FF00000BAF1000F00F44000BF
:1005A00005DA00EB80004FF4400101EA50004FEA09
:1005B0009059B9F1010F00DDB9460A9850EA4A0096
:1005C0000ED044F61050A5F2FF3545432F14B8F174
:1005D000000F1ED07542291E1EDDC9F100021CE06D
:1005E000B8F1010F4FF0000001D0302103E0F243D9
:1005F00005E02154401CB042FBDB304600220021C4
:1006000021540B99C1F80880C1E900200FB0BDE862
:10061000F08FBD1B6D1CDEE74A4600DA694206A872
:1006200000F082FA06AB93E8070003AB83E807000B
:1006300050460A9900F064FB8DE80700A0F50050D1
:100640001F3800900398002D0ADD42F21F014A4630
:100650000844002303A90390684600F0CDFD09E09B
:10066000A0F500504A461F38002303A903906846AE
:1006700000F0D7FD8DE807000004000C03D04FF018
:10068000FF30410800E01046B8F1000F03D000220F
:10069000009215461EE0751E05D400F0BFF93032F9
:1006A00062556D1EF9D5B3460122084302D00022DF
:1006B0007F1C04E02078302801D100227F1E002A10
:1006C000099784D01DE0112D07DA00F0A7F9303228
:1006D00062556D1C50EA0102F5D1084302D0009822
:1006E000C8B10EE00021681E05E0235C625C635423
:1006F0002254401E491C8142F7DBAB46A81B401E1A
:100700000990002004F80B000B98099AC0F80880A3
:10071000C0E9002B7AE711264FF0000857E72DE9D2
:10072000F04F88460446D21D22F0070191B0D1E96E
:100730000001CDE90A0102F007FF02460B98C00F45
:1007400001D02D2007E02068810701D52B2002E091
:10075000202101EAC000032A099001D0072A05DB05
:1007600003464146204600F09FF90BE120788006C1
:1007700001D5E06900E00620B8F1650F814606D09A
:10078000B8F1660F18D0B8F1670F70D131E00020D2
:10079000B9F1110F009001DB112301E009F1010310
:1007A0000AAA01A90CA8FFF7E2FEDDE90C700026F9
:1007B00009F10105834647E001204B4600904FF0C8
:1007C00000470AAA01A90CA8FFF7D1FEDDE90DB088
:1007D0000C995D46002610B909F101000D18B9EB1E
:1007E000050003D4C0F1FF3609F10105A5EB0900AE
:1007F0002BE0B9F1010F01DA4FF001090020B9F146
:10080000110F0090484601DD112300E003460AAABB
:1008100001A90CA8FFF7ABFEDDE90C704D460026E0
:100820008346207800070AD4AB4500DA5D4601A86C
:10083000012D04DD411911F8011C302907D04F4565
:1008400002DA17F1040F04DA012082460FE06D1E70
:10085000EEE7002F02DCED1B3E4403E0781CA842CB
:1008600000DD7D1CB81B00F1010A4FF00047207825
:10087000000703D4AA4501DB4FF0FF3A0021B7F18E
:10088000004F0DF143088DF8431024D002202B2394
:10089000002F01DA7F422D230A21021EA0F1010060
:1008A00000DC5FB197FBF1FC97FBF1F201FB1C7CD4
:1008B00017460CF1300C08F801CDEEE7A8F1010065
:1008C00003702188090501D5452100E06521A0F1CB
:1008D000010800F8011C09980FA9A1EB0807FF1DEA
:1008E00000B10120411901EBEA70A1693844081AEE
:1008F000401EA0612078C00602D42046AFF30080DD
:10090000099828B1D4E901219047206A401C20624F
:100910002078C00622D52046AFF300801EE0002ECE
:1009200004DBB34502DD01A8805D00E03020D4E99E
:1009300001219047206A401C2062761CAAF1010028
:100940005FEA000A0AD100F061F8C0680168405C03
:10095000D4E901219047206A401C2062281EA5F19D
:100960000105DCDC07E0D4E9012118F8010B904710
:10097000206A401C2062381EA7F10107F3DC2046E4
:10098000AFF30080032011B041E6000001694A1C6A
:1009900002610878704700B58FB0CDE901310021C0
:1009A000059105497944CDE9031011466846FFF7E2
:1009B0007FFC0FB000BD0000E5FFFFFF0A6802F8F2
:1009C000010B0A6070474FF000020429C0F012804A
:1009D00010F0030C3FF43EADCCF1040CBCF1020F5F
:1009E00018BF00F8012BA8BF20F8022BA1EB0C01C7
:1009F000FFF730BD5FEAC17C24BF00F8012B00F88F
:100A0000012B48BF00F8012B7047000000487047D9
:100A100090110020004870477011002030B5B0F1EF
:100A20000A024FEA900E71F100034EEA817EB0EBAC
:100A30000E0061EB91014FEA101E4EEA017E10EBB1
:100A40000E0041EB11114FEA102E4EEA016E10EB31
:100A50000E0041EB11214FEA104E4EEA014E10EB11
:100A60000E0041EB1141401841F100014FEAD00066
:100A700040EA41704FEAD10110EB80054FEA810452
:100A800044EA907444EB01046D1944EB0404521BD6
:100A9000A3414FF0000348BF0A3200D530BD401CCF
:100AA00041F1000130BD00002DE9F0411F46044630
:100AB00003260168072A01F4006004DB08B116A5CB
:100AC00005E016A503E008B115A500E015A521F085
:100AD00010002060A069C01EA0610FB1401EA0617F
:100AE0002046AFF300804FB1D4E90121384690474A
:100AF000206A401C2062C01C206206E0206AFAE7DF
:100B0000D4E9012115F8010B9047761EF8D2204652
:100B1000AFF30080BDE8F0814E414E006E616E0083
:100B2000494E4600696E66002DE9F047814616463B
:100B30008AB0354878440DC88DE80D0032487844B5
:100B4000801C03AC0DC884E80D0041F69B300844BE
:100B5000372190FBF1F290FBF1F5A5F1800501FB47
:100B600012041B3C02D56442012000E00020DFF8A3
:100B700098A080460027FA44AAF1BE0A0EE0E007DA
:100B80000AD03246684607EB470101230AEB810190
:100B900000F047FB8DE8070064107F1C002CEED1AD
:100BA000194F7F44AE3F19E0E80715D007EB04105A
:100BB0000DF1180A90E80E008AE80E00C068F042B5
:100BC00001D1981908903246012306A903A800F024
:100BD00028FB03AB83E807006D10641C002DE3D1F4
:100BE0004FF0010332466946B8F1000F03A802D066
:100BF00000F002FB01E000F014FBC9E90001C9F8B4
:100C000008200AB0BDE8F0873C7600000048704735
:100C1000701100207546FFF7F9FFAE4605006946E2
:100C2000534620F00700854618B020B5FFF7CAFAF2
:100C3000BDE820404FF000064FF000074FF00008DD
:100C40004FF0000B21F00701AC46ACE8C009ACE85E
:100C5000C009ACE8C009ACE8C0098D46704710B5C2
:100C60000446AFF300802046BDE81040FFF795BA78
:100C70004FF0013C50F8042B51F8043B9A4221D12B
:100C8000A2EB0C03934313EACC1317D150F8042BB7
:100C900051F8043B9A4215D1A2EB0C03934313EA9B
:100CA000CC130BD150F8042B51F8043B9A4209D1D4
:100CB000A2EB0C03934313EACC13DBD04FF00000FC
:100CC000704700BFD01A01BAB1FA81F101F01801E2
:100CD00022FA01F0CB40C1F12001DBB2C0B2C01A50
:100CE0002CFA01F3D11A914311EAC311E6D17047EE
:100CF0007047000001491820ABBEFEE72600020045
:100D00005FEA400C08BF91F0000F4FEA8C234FEAD6
:100D1000C12243EA51514FEA1C5018BF00F5F04080
:100D20004FEA300018BF41F000415FEA6C5C00F010
:100D30002980BCF1FF3F08BF40F080407047130C92
:100D400006BF12044FF0100C4FF0000C130E04BF3E
:100D500012020CF1080C130F04BF12010CF1040C69
:100D6000930F04BF92000CF1020CD30F04BF52008A
:100D70000CF1010C11464FF00002A0F11F00A0EB96
:100D80000C00704711F0004F08BF704731F0004170
:100D90003FF4D5AF0B0C06BF09044FF0100C4FF019
:100DA000000C0B0E04BF09020CF1080C0B0F04BF62
:100DB00009010CF1040C8B0F04BF89000CF1020C2B
:100DC000CB0F04BF49000CF1010CCCF12003A0EBC8
:100DD0000C0022FA03F302FA0CF241EA030100F1DB
:100DE0000100704720F07F4C80EA030023F07F472A
:100DF000ACEB070303F57C5300F0004003F1FF0365
:100E00002DE980494FEA154B09B44FEA144325EA0E
:100E10000B4E24EA03480FF2042606EB1327490879
:100E20003E785FEA320203FB0667C7F5000707FB5F
:100E300006F64FEA54374FEAD64606F1020607FB9C
:100E4000066CCCF1005C4FEA1C472CEA074C07FB10
:100E500006F40CFB06F504EB15464FEA961634BF74
:100E600000204FF000404FEAD13706FB07FC4FEA65
:100E70001C4C0CFB0BF7D21B03FB0CF761EB0701BF
:100E80000CFB0EF7B0EB074072EB17420CFB08F7B8
:100E900034BFA2EB0742B2EB074261EB17414FEAC6
:100EA0000C444FEA910706FB07FC4FEA1C4C0CFB75
:100EB0000BF7B0EBC74072EB573203FB0CF734BFB4
:100EC000A2EBC742B2EBC74261EB57310CFB0EF706
:100ED000B0EBC70072EB57720CFB08F734BFA2EB04
:100EE000C702B2EBC70261EB5771039F4FEA816102
:100EF00041EA921104EBCC044FEAD1374FEA826207
:100F000006FB07FC42EA90124FEA80604FEA1C4C55
:100F10000CFB0BF7D21B03FB0CF761EB07010CFB7F
:100F20000EF7B0EB074072EB17420CFB08F734BF2B
:100F3000A2EB0742B2EB074261EB17414FEA8C5537
:100F40004FEA910704EB9C2406FB07FC4FEA1C4C7C
:100F50000CFB0BF7B0EBC74072EB573203FB0CF7FF
:100F600034BFA2EBC742B2EBC74261EB57310CFB77
:100F70000EF7B0EBC70072EB57720CFB08F734BFEB
:100F8000A2EBC702B2EBC70261EB577115EB4C2520
:100F90004FEA816141EA92114FEA82624FEAD1370A
:100FA00042EA901206FB07FC44F100044FEA80601D
:100FB0004FEA1C4C0CFB0BF7D21B03FB0CF761EB4D
:100FC00007010CFB0EF7B0EB074072EB17420CFB6E
:100FD00008F734BFA2EB0742B2EB074261EB1741BF
:100FE00015EB1C154FEA813141EA92414FEA8232FA
:100FF00042EA90424FEA80304FEA0C7644F1000416
:1010000048EA03434EEA0B484FF0000EB2EB080CDF
:1010100071EB030724BF624639464EEB0E0E4FF0CC
:10102000000B0018524149414BEB0B0BB2EB080C83
:1010300071EB03077BF1000B24BF624639464EEB90
:101040000E0E4FF0000B0018524149414BEB0B0BB9
:10105000B2EB080C71EB03077BF1000B24BF624677
:1010600039464EEB0E0E51EA020718BF46F0010654
:1010700016EB0E7655F1000254F1000103D5BDE8E0
:101080008901BDE80088BDE88901BDE80048B619BE
:10109000524141EB0101A3F10103704780807F7E43
:1010A0007D7C7B7A797877767675747372717170DE
:1010B0006F6E6E6D6C6C6B6A6A6968686766666590
:1010C0006464636362616160605F5F5E5E5D5D5C1E
:1010D0005C5B5B5A5A59595858575756565555558F
:1010E0005454535352525251515050504F4F4F4EEF
:1010F0004E4D4D4D4C4C4C4B4B4B4A4A4A4949493D
:10110000484848474747474646464545454444447E
:10111000444343434342424242414141002B9C46A7
:1011200030D477002BD01CB54FEA370703B44FF00B
:1011300010004FF01001BAF1000F06D0BCF1000F03
:10114000DCBF40F0080040F008014FF000000FBC89
:10115000BDE810400BF1010BBBF1010F08BF5FEAC6
:10116000170722BF12F1010211F101014FF00041F6
:1011700043F1000300F0004043EA00007047F9D358
:101180005708D0E746EA064613F1400F4FEA1646E5
:101190001FDD13F1200FDFBF16430A460021203365
:1011A0005B42BED0C3F1200746EA064602FA07F7C3
:1011B0004FEA164646EA0706C3F1200722FA03F271
:1011C00001FA07F721FA03F14FF0000342EA0702A0
:1011D000A7E746EA020646EA06464FEA164646EA08
:1011E0000106BCBF46EA0646360C4FF000034FF03E
:1011F00000024FF0000194E72DE9804C9A46934697
:1012000070B491E8380007C831EA400C48BF34EAAE
:10121000430C03D5FFF7E6FDFFF780FFF0BCBDE808
:10122000008C2DE9804C9A46934670B491E83800C2
:1012300007C810F0804F08BF13F0804F03D100F0B3
:1012400005F8FFF76BFFF0BCBDE8008C20F07F478E
:1012500080EA030023F07F4C07EB0C03A3F57C53DB
:1012600000F00040A3F1FE0392F0000F00F0B38005
:1012700095F0000F00F077802DE901494FEA114009
:101280004FEA144621EA004800FB06FC24EA064720
:1012900008FB06F607FB08F800FB07F718EB064803
:1012A0004CEB164C4FEA124B18EB07484FEA154629
:1012B0004CEB174022EA0B4E0BFB06FC25EA0647D7
:1012C0000EFB06F607FB0EFE0BFB07F71EEB064EAA
:1012D0004CEB164C4FF000061EEB074E4CEB174B39
:1012E00018EB0B0840F1000018EB0E0B58EB000850
:1012F00040F100008F1A4FF000013CBFC943661B4C
:1013000014BFB5EB040C00213CBFC943F61B4FEAE8
:1013100017444EEA8E0E27EA04454FEA1C4704FBA9
:1013200007622CEA074C05FB07F70CFB05F604FBEC
:101330000CFC16EB074642EB174216EB0C4642EB51
:101340001C421BEB060658EB0202414146EA9E0690
:1013500001D5BDE80189B619524141EB0101A3F164
:101360000103BDE801894FEA14454FEA114724EA19
:10137000054621EA074C05FB07F406FB07F70CFBC3
:1013800006F105FB0CFC11EB074144EB17444FEA57
:10139000124711EB0C4144EB1C4422EA074C05FBBD
:1013A00007F206FB07F70CFB06F605FB0CFC16EB39
:1013B000074642EB174216EB0C4642EB1C456A18F7
:1013C00054F1000148BF7047B619524141EB010189
:1013D000A3F10103704795F0000F37D04FEA114297
:1013E0004FEA144721EA024624EA074C02FB07F1C0
:1013F00006FB07F70CFB06F402FB0CFC14EB07449E
:1014000041EB17414FEA154714EB0C4441EB1C41EB
:1014100025EA074C02FB07F506FB07F70CFB06F66F
:1014200002FB0CFC16EB074645EB174516EB0C468A
:1014300045EB1C42121951F1000148BF7047B61923
:10144000524141EB0101A3F1010370474FEA1445FA
:101450004FEA114724EA054621EA074C05FB07F14C
:1014600006FB07F70CFB06F24FF0000605FB0CFC31
:1014700012EB074241EB174112EB0C4251EB1C41BE
:1014800048BF7047921841EB0101A3F10103704777
:10149000FEE7704700B502464FF47A7302E0184643
:1014A00000F003F8521EFAD200BD00EBC000C100EC
:1014B0004FF0E02041610021816105210161016956
:1014C000C903FCD504210161704772B6FEE7000034
:1014D00006490020C8610648016941F00401016124
:1014E000016941F040010161704700005011002086
:1014F00000200240064A0021D16106490A6942F0F3
:1015000002020A614861086940F0400008617047C2
:101510005011002000200240044B0022DA61044AEE
:10152000136943F0010313610180704750110020DB
:101530000020024014480022C168CB06134904D59C
:10154000CA6942F00202CA611022C3685B0705D56E
:10155000CB6943F00103CB6142F00402C369DB07AE
:1015600007D0CB6943F00403CB61C16921F00101CD
:10157000C161A2F58071013901D0C2607047C169B3
:1015800021F00101C161704700200240501100208C
:1015900070B5054600F0D2F90646114C09E0681C0A
:1015A00007D025B100F0CAF9801BA84201D9032059
:1015B00070BDE068C007F2D1E068800601D5202048
:1015C000E060E068C00605D4E069C00702D1E068C9
:1015D000400703D5FFF7AEFF012070BD002070BDAE
:1015E000002002402DE9F047054626480F46012617
:1015F000017E01290FD00121814601762868DFF89C
:1016000088804CF25034022808D0A2462046FFF7CA
:10161000BFFFA8B131E00220BDE8F0872046FFF708
:10162000B7FF08BB0120FFF753FF2046FFF7B0FFCD
:10163000D8F81010064621F00401C8F810101CE07C
:101640004FF0FF303860AC6811E02046FFF752FFE2
:101650005046FFF79DFFD8F81010060021F0020158
:10166000C8F8101001D03C6007E004F58064D5E9AB
:10167000020100EB8120A042E7D8002189F8181070
:101680003046C9E75011002000200240034801699C
:1016900041F08001016100207047000000200240FD
:1016A0002DE9F05F07461C4888460024017E154658
:1016B0001E46012909D00121814601764CF2503A9B
:1016C0005046FFF765FF18B122E00220BDE8F09F09
:1016D000012F02D0022F00D00427D346DFF83CA010
:1016E000220128463146FEF77FFD81B208EB440017
:1016F000FFF712FF5846FFF74BFFDAF8102022F0F1
:101700000102CAF8102018B9641CE4B2BC42E7D345
:10171000002289F81820D9E750110020002002404B
:10172000064900200A69120607D5054A4A60054A9B
:101730004A600969090600D501207047002002406F
:1017400023016745AB89EFCD2DE9F84FDFF8B8915C
:101750000024A9F1040B23460F2709F1040AABF179
:10176000040EC9E00125A5402A40AA427DD1674E5A
:10177000D1F804C0ACEB0608B44532D014DCBCF19F
:10178000030F3AD009DCBCF1000F2AD0BCF1010FE5
:101790001CD0BCF1020F31D11DE0BCF1110F17D0EC
:1017A000BCF1120F2AD119E0B8F5881F19D006DC58
:1017B000B8F5803F15D0B8F5801F1FD111E0B8F5FE
:1017C000001F0ED0B8F5041F18D10AE0CB6815E051
:1017D000CB681B1D12E0CB6808330FE0CB680C33DD
:1017E0000CE08B682BB1012B4FF0080303D045614F
:1017F00004E0042302E0056100E00023FF2A01D891
:10180000064601E000F104064FEA840501D9A5F17E
:101810002005D6F8008007FA05FC28EA0C0803FA30
:1018200005F548EA0508C6F800804D68ED0062D568
:10183000374DAE6946F00106AE61AD6924F003068E
:1018400005F001050095334D06EB050CDCF808505A
:10185000A607360F07FA06F825EA0805DFF8B8806C
:10186000404503D14FF0000817E044E0DFF8AC80BA
:10187000404502D14FF001080FE0DFF8A480404559
:1018800002D14FF0020808E0DFF89880404502D10D
:101890004FF0030801E04FF0040808FA06F848EAA0
:1018A0000508CCF808804D68D9F80060ED024D4677
:1018B00001D5164300E096432E604D68DAF80060CB
:1018C000AD02554601D5164300E096432E604D68A3
:1018D000DBF80060AD035D4601D5164300E096439A
:1018E0002E604D68DEF80060ED03754601D51643A5
:1018F00000E096432E60641C0D682A46E5407FF4A4
:1019000031AFBDE8F88F000008040140000011105D
:10191000001002400000014000080140000C01409E
:1019200000100140001401408068084000D00120F0
:1019300070470AB1016170470904FBE701488068FC
:10194000704700006C00002070B5040025D094F8AA
:101950003D00002520B984F83C50204600F050F9A5
:10196000242084F83D002068016821F00101016015
:101970002068016841F4004101602068016821F499
:101980000041016000F08AFB4D4A6168914201D834
:101990004C4900E04C49884201D2012070BD4B49BE
:1019A0002368B0FBF1F15E6826F03F060E435E60EF
:1019B0006368934206D94FF4967359434FF47A7390
:1019C000B1FBF3F12368491C1E6A26F03F06314340
:1019D00019626168914210D84900401EB0FBF1F2D3
:1019E000521CC2F30B02042A01D2042022E0B0FBF5
:1019F000F1F0401CC0F30B001CE0A268F2B301EB55
:101A0000C10303EB0116431EB3FBF6F35B1C43F467
:101A100080431B0549D092B301EBC10202EB0111D7
:101A2000401EB0FBF1F0401CC0F30B0040F48040BE
:101A300040F400402168CA694CF6FF739A43104392
:101A4000C861D4E9071001432068026822F0C0028F
:101A500011430160D4E9030101432068826848F220
:101A6000FF339A4311438160D4E90501084321689B
:101A7000CA6822F0FF021043C86001E00EE016E0E1
:101A80002068016841F0010101602564202084F88C
:101A90003D00256384F83E50002070BD01EB4106F7
:101AA000431EB3FBF6F35B1CB3E70120C2E701EB77
:101AB0004101401EB0FBF1F0401CC0F30B00B7E742
:101AC000A086010080841E0000093D0040420F00F6
:101AD0002DE9FF4F83B09A46DDE9119793460446FE
:101AE000DDF84080FFF72AFF054694F83D002028E6
:101AF0007FD11923012240492046009501F00AF8C0
:101B0000002876D194F83C00012872D0012084F896
:101B10003C0020680168C90703D1016841F0010158
:101B200001602068016821F400610160212084F8CF
:101B30003D00402084F83E0000262664C4F824803E
:101B4000A4F82A90608D20852C48E062CDE90075CC
:101B500053465A462046049900F05CFF70B930E0C5
:101B60002A463946204601F07BF858B1206C0428FB
:101B700004D12068016841F400710160012007B0C0
:101B8000BDE8F08F606A216800780861606A401CD7
:101B90006062218D491E89B22185628D521E628547
:101BA00022685369DB435B070BD469B1007810618D
:101BB000606A401C6062208D401E2085608D401E42
:101BC0006085208D0028CBD12A463946204600F07A
:101BD00075FF0028CAD154F83D0B016841F400712B
:101BE0000160202004F81E09E67766770020C6E72A
:101BF000FFE70220C3E70000020010000000FFFF23
:101C000010B586B000210091019102910391006806
:101C10001349884222D1134CA06940F00800A0610A
:101C2000A069694600F0080004904FF440700090ED
:101C300012200190032003900B48FFF785FD0B480D
:101C4000416841F0E06141F002014160E06940F427
:101C50000010E061E06900F40010049006B010BDCF
:101C60000054004000100240000C01400000014000
:101C70000248816802781144816070476C0000203E
:101C8000074810B5016841F010010160032000F021
:101C90007DF80F2000F006F800F024F8002010BDB9
:101CA0000020024070B50D4D04464FF47A7128783B
:101CB000B1FBF0F00A490968B1FBF0F000F045FC17
:101CC00048B9102C07D200222146501E00F03EF8E1
:101CD00000206C6070BD012070BD00006C00002011
:101CE00078000020104808B5816941F00101816148
:101CF000816901F001010091C16941F08051C16128
:101D0000C069002200F0805000901146052000F0CC
:101D10001DF8052000F00CF80448416821F0E0614E
:101D200041F00071416008BD001002400000014018
:101D3000002809DB00F01F020121914040098000CA
:101D400000F1E020C0F8001170470000F0B40E4B25
:101D50001B680C46C3F30223C3F10705042D00D909
:101D60000425191D072901D2002300E0DB1E0126EE
:101D700006FA05F1491E214099409E40761E164004
:101D80003143F0BC01F0F4BB0CED00E0064900F07B
:101D9000070208684FF6FF03184040EA0220034A92
:101DA00010430860704700000CED00E00000FA05E9
:101DB000BFF34F8F05480168054A01F4E061114304
:101DC0000160BFF34F8F00BFFDE700000CED00E0A6
:101DD0000400FA05014901200862704700000E4224
:101DE00010B501460020234C012922D0022939D008
:101DF00010291DD161682268D20119D51E48C1F38E
:101E00008342C903805C0AD561681B4AC1F3404123
:101E1000921E515C194AB2FBF1F1484301E01849A6
:101E200048436168490203D440000321B0FBF1F04C
:101E300010BD226AC2F30121012903D1920701D505
:101E4000C80310BD022905D1626A920702D549F67E
:101E5000404010BD0329FCD121688903F9D54FF218
:101E6000244010BD00F02AF96168C1F38131491C9A
:101E70004900DBE700100240CE7F000800127A0024
:101E800000093D002DE9F84305460078354CC007B0
:101E900054D0E0690026C00008D4E06940F08050CA
:101EA000E061E069012600F0805000902E48016852
:101EB000C90512D40168804641F480710160FFF7C2
:101EC0003DFD074605E000BFFFF738FDC01B642855
:101ED00023D8D8F80000C005F6D5206A10F4407069
:101EE00021D0A98801F4407181421CD0206A1F4989
:101EF000012220F440700A6000220A602062C007BC
:101F000011D0FFF71BFD074641F2883808E000BFFB
:101F1000FFF714FDC11B414502D90320BDE8F8833A
:101F2000206A8007F4D5206A696820F4407008436D
:101F300020621EB1E06920F08050E06128788007BF
:101F400005D56068A96820F440400843606028789F
:101F5000C00605D56068E96820F480000843606029
:101F60000020DBE7001002400070004040044242C5
:101F70002DE9F0470F46050061D0434E306800F070
:101F80000700B84209D2306820F0070038433060BB
:101F9000306800F00700B84251D128683B4C8107F7
:101FA00012D5400703D5606840F4E060606028788F
:101FB000000703D5606840F4605060606068A968FD
:101FC00020F0F000084360602878C00728D06868D7
:101FD000012810D02168022810D0890700292EDAA4
:101FE000616821F0030101436160FFF7A7FC8046AF
:101FF00041F288390DE021688903EFE78901EDE7B7
:10200000FFF79CFCA0EB0801494502D90320BDE87D
:10201000F0876068696800F00C00B0EB810FEFD1C9
:10202000306800F00700B8420BD9306820F0070094
:1020300038433060306800F00700B84201D001201A
:10204000E5E72878400705D56068E96820F4E06096
:10205000084360602878000706D56068296920F485
:10206000605040EAC100606000F038F86168084ADA
:10207000C1F30311515CC840064908600648006876
:10208000FFF710FE0020C2E70020024000100240CF
:10209000DE7F000878000020700000200448054919
:1020A00000684968044AC1F30221515CC840704786
:1020B0007800002000100240EE7F00080448054927
:1020C00000684968044AC1F3C221515CC8407047A6
:1020D0007800002000100240EE7F00080E4A516890
:1020E0000E4801F00C03042B11D0082B0FD10C4823
:1020F000C1F38343C903C05C0AD55168084AC1F3E0
:102100004041921E515C054A5043B0FBF1F07047CC
:1021100004494843704700000010024000127A0052
:10212000BC7F000800093D002DE9F84F040070D085
:102130002078C04DC00749D06868C0F381000128ED
:1021400007D06868C0F38100022809D16868C0031D
:1021500006D52868800339D560680028E7D035E0C7
:102160006068B0F5803F0BD010B1B0F5A02F11D052
:10217000286820F480302860286820F4802002E05D
:10218000286840F480302860606890B1FFF7D6FB83
:1021900006460AE0286840F480202860F0E700BF87
:1021A000FFF7CCFB801B642873D828688003F7D521
:1021B0000CE0FFF7C3FB064605E000BFFFF7BEFBE0
:1021C000801B6428F0D828688003F7D420789A4EC2
:1021D00080074FF001094FF0000839D5686810F00A
:1021E0000C0F07D06868C0F38100022809D1686825
:1021F000C00306D42868800714D52069012808D1B7
:1022000010E02069B0B1C6F80090FFF797FB0746D1
:1022100005E00AE1FFF792FBC01B0228C4D828683A
:102220008007F7D52868616920F0F80040EAC1000E
:1022300028600DE0C6F80080FFF780FB074604E049
:10224000FFF77CFBC01B022823D828688007F7D43F
:10225000207800072CD57948A169D9B1C0F8009041
:10226000FFF76CFB074604E0FFF768FBC01B022882
:102270000FD8686A8007F7D571484FF4FA510068A3
:10228000B0FBF1F0009000BF0098411E0091FAD21F
:102290000EE080E0C0F80080FFF750FB074604E046
:1022A000FFF74CFBC01B022875D8686A8007F7D47B
:1022B0002078400760D5E8690027C00008D4E869A5
:1022C00040F08050E861E869012700F080500090FC
:1022D0005C480168C90513D40168834641F48071E4
:1022E0000160FFF72BFB824606E000BFFFF726FBED
:1022F000A0EB0A0064284ED8DBF80000C005F5D535
:10230000E06801280AD008B1052813D0286A20F017
:1023100001002862286A20F0040002E0286A40F0E8
:1023200001002862E06841F2883B98B1FFF706FBA4
:1023300082460BE0286A40F004002862EEE700BF06
:10234000FFF7FCFAA0EB0A0159455AD8286A800722
:10235000F6D50CE0FFF7F2FA824605E0FFF7EEFA59
:10236000A0EB0A0159454CD8286A8007F6D41FB162
:10237000E86920F08050E861E06988B36968C1F3DA
:102380008101022944D00228C6F8608004D0FFF7FA
:10239000D5FA044638E034E0FFF7D0FA074604E007
:1023A000FFF7CCFAC01B02282BD828688001F7D48D
:1023B000206AB0F5803F05D16868A16820F400303C
:1023C00008436860D4E908010843696821F474117E
:1023D00008436860C6F86090FFF7B0FA044606E06C
:1023E00025E000BFFFF7AAFA001B022809D82868D9
:1023F0008001F7D51BE000BFFFF7A0FA001B022801
:1024000002D90320BDE8F88F28688001F4D40EE0DB
:102410000128F7D06868226A00F48031914204D123
:10242000616A00F47010884201D00120EAE70020C0
:10243000E8E70000001002400000424280044242EF
:10244000780000200070004070B5040003D0607C6C
:10245000002610B105E0012070BD2674204600F072
:102460003DF802206074204600F052F8042550BB6D
:10247000204600F0E3FE30BB2068416821F00701F0
:102480004160A06820B11448016821F00101016099
:102490001148001F0168A26821F4607111430160B6
:1024A0006068411C04D10120FFF79AFC58B1401E1E
:1024B0002268C0F303419160216880B2C860204661
:1024C00000F0D6FE08B16574C5E7E67301206073BD
:1024D000A0736074002070BD306C004008B50068C7
:1024E000084988420DD1FFF775FC0748C16941F0E2
:1024F0000061C161C069054900F0006000900120E1
:10250000086008BD00280040001002403C04424220
:1025100070B504000AD02068416821F008014160CC
:10252000FFF70CFA05464FF47A7608E0012070BDFB
:10253000FFF704FA401BB04201D9032070BD2068A8
:1025400040680007F4D5002070BD10B5401EB0F102
:10255000807F01D3012010BD4FF0E02460610F2186
:10256000601701F005F80020A0610720206100201D
:1025700010BD70477047000070B590F83C20012AEC
:1025800026D0012480F83C40022280F83D200368D8
:102590005A689D6822F070060A6832435A600D4BF3
:1025A00002689A4208D0B2F1804F05D00A4B9A4295
:1025B00002D00A4B9A4204D1496825F0800319439E
:1025C000916080F83D40002180F83C10084670BDC5
:1025D000022070BD002C01400004004000080040B3
:1025E00010B5040003D094F83D0010B107E00120BD
:1025F00010BD002084F83C00204600F01FF80220A7
:1026000084F83D00211D206800F02CFF012084F893
:10261000460084F83E0084F83F0084F8400084F8C7
:10262000410084F8420084F8430084F8440084F8B0
:10263000450084F83D00002010BD000008B500688A
:102640000B49884212D10B48816941F400618161D4
:102650008069002200F40060009011461920FFF705
:1026600075FBBDE808401920FFF762BB08BD0000FC
:10267000002C01400010024090F83D10012901D0CB
:1026800001207047022180F83D100168CA6842F0BD
:102690000102CA6000680B49884208D0B0F1804F3F
:1026A00005D00949884202D00849884204D181688E
:1026B00001F00701062903D0016841F00101016022
:1026C00000207047002C014000040040000800403A
:1026D00070B5044690F83C000025012817D001266B
:1026E00084F83C60022084F83D002068826822F073
:1026F000770222F47F4282600868502838D00DDCCF
:1027000020284FD005DC90B3102811D14AE00220D8
:1027100070BD302846D040280AD13BE060282FD039
:1027200070280DD0B0F5805F03D0B0F5005F12D0F7
:10273000012584F83D60002084F83C00284670BDE7
:10274000CB68D1E90121206800F0C8FE20688168CB
:1027500041F0770109E0CB68D1E90121206800F060
:10276000BDFE2068816841F480418160E1E719E0A5
:10277000CA684968206800F0C3FE5021206806E05E
:10278000CA684968206800F0CCFE6021206800F02B
:10279000AFFECEE7CA684968206800F0B1FE40216C
:1027A0002068F4E7226801461046F0E770472DE9FB
:1027B000F04104460068C66805694FF00007A907A4
:1027C00013D5B10711D5F91E0161012020772068CA
:1027D00080698007204602D0FFF7E8FF04E000F0A0
:1027E0007EF8204600F07CF82777680716D570073A
:1027F00014D521686FF0040008610220207720685A
:10280000806910F4407F204602D0FFF7CFFF04E03C
:1028100000F065F8204600F063F82777280715D503
:10282000300713D521686FF0080008610420207775
:102830002068C0698007204602D0FFF7B7FF04E098
:1028400000F04DF8204600F04BF82777E80616D543
:10285000F00614D521686FF0100008610820207779
:102860002068C06910F4407F204602D0FFF79EFF29
:1028700004E000F034F8204600F032F82777E8074B
:1028800008D0F00706D021686FF0010008612046EB
:1028900000F028F8280608D5300606D521686FF024
:1028A000800008612046FFF764FE680608D57006C0
:1028B00006D521686FF040000861204600F090F8CE
:1028C000A8060AD5B00608D521686FF02000086177
:1028D0002046BDE8F041FFF74DBEBDE8F0817047EE
:1028E000704700002DE9F041374C2188B1F5006FA9
:1028F00006D90068C16821F00101C160BDE8F0811E
:10290000C80709D0304A1832111F081F01F01CFFF8
:102910002088401C2080F1E7F1B32B4A0C32111FB4
:10292000081F01F011FF294E2069314603F03CFFDA
:1029300005463146606803F037FF294603F0BEFDC7
:102940004FF0FF3104F0D3F803F0E2FE2049258870
:1029500001EB550101F8010C3146606903F024FFD9
:1029600007461C49A06803F01FFF394603F0E8FF43
:1029700003F0CEFE1849C0F3460001EB550101F803
:10298000010C3146A06903F00FFF07463146E068AD
:1029900003F00AFF394600E00DE003F08FFD03F07D
:1029A000B7FE0E49C0F3460001EB55016D1C01F85E
:1029B000010C2580A2E7BDE8F041034A1832111F3F
:1029C000081F01F0C1BE000050000020000020419F
:1029D000A0040020000020C1A0080020A00C0020BE
:1029E0007047FEE701684A69D24352050FD46FF47D
:1029F00080624A61002140F8301F202242738173B7
:102A0000026942F004020261017301207047002054
:102A1000704700002DE9F843044600680D46DDE9E3
:102A2000089701689846164641F4807101604B464C
:102A300000224FF001112046009700F06BF848B1DA
:102A400020680068C00502D54FF4007020640320A0
:102A5000BDE8F883216805F0FE0008613B464A4660
:102A60001549204600F09EF888B9206841698069C0
:102A700000903A464946204600F0F2F848B1206CF2
:102A8000042804D12068016841F40071016001202C
:102A9000DEE7F5B2B8F1010F09D02168300A08610C
:102AA0003A464946204600F0DBF80028E7D1206886
:102AB00005610020CCE700000200010070B5164659
:102AC0000D4604461EE02046FFF78CFF08B10120AA
:102AD00070BD681C16D0FEF731FF801BA84200D8DD
:102AE00085B920684069C04340070BD5002044F8F1
:102AF000300F20216173A073216941F02001216111
:102B00002073E4E720684069C0434007DBD400201D
:102B100070BD00002DE9F047984617460D46044663
:102B2000C1F30746DDF820902AE000BFB8F1FF3F6F
:102B300026D0FEF703FFA0EB0901414502D8B8F10A
:102B4000000F1DD12068012E16D0806925EA0000F3
:102B50000004000C12D00020B84211D1002044F82B
:102B6000300F20216173A073216941F020012161A0
:102B700020730120BDE8F0874069E7E70120EBE71B
:102B80002068012E0AD0806925EA00000004000CAC
:102B900006D00020B842C9D00020EBE74069F3E737
:102BA0000120F7E72DE9F047984616460D46044602
:102BB0004FF000094FF0200AC1F3074723E02068D7
:102BC0004069C043400515D42068016841F4007194
:102BD000016021686FF480604861C4F8309084F827
:102BE0003DA084F83E90216C41F00401216484F8FA
:102BF0003C9021E0701C06D0FEF7A0FEA0EB080080
:102C0000B04203D816B1012F1FD021E02068012F58
:102C100015D0806925EA00000004000C18D000BF20
:102C200044F8309F84F80DA084F80E90216941F09B
:102C30002001216184F80C900120BDE8F0874069F3
:102C400025EA00000004000CEAD12068406901E098
:102C50002068806925EA00000004000CAFD1ECE791
:102C600070B516460D4604461EE02046FFF7BAFE34
:102C700008B1012070BD681C16D0FEF75FFE801BF6
:102C8000A84200D885B920684069C04300060BD52A
:102C9000002044F8300F20216173A073216941F0B6
:102CA000200121612073E4E720684069C0430006E9
:102CB000DBD4002070BD10B5BC2801D3012210E088
:102CC000622801D302220CE02A2801D3032208E063
:102CD000142801D3042204E00A2801D3052200E0CD
:102CE00006221A21682002F095FDC0B210BD10B571
:102CF00004464FF47A70844201D9044602E0042C61
:102D000000D20424B0FBF4F0401EC2B219216820A6
:102D100002F080FD6008BDE81040FFF7CCBF000066
:102D200070B586B000241C4800940194029403946A
:102D3000816941F010018161816901F01001049104
:102D4000816941F020018161816901F020010491D4
:102D5000816941F008018161816901F008010491F4
:102D6000816941F00401816180690C4E00F004002A
:102D70004FF440650490002229463046FEF7D9FD05
:102D800011200095CDE901040320039069463046E7
:102D9000FEF7DAFC06B070BD00100240000C0140E6
:102DA0000D4810B50B4901600C49416000214FF4FA
:102DB00080428160C0E9031241618161C1610162A9
:102DC000FEF7C2FD002803D0BDE81040FEF77DBB32
:102DD00010BD000000540040A0100020A08601009B
:102DE000094810B507490160282141604FF48071FE
:102DF0008160FFF729FB002803D0BDE81040FEF7F3
:102E000064BB10BD00280040F410002010B586B04F
:102E100000241848009401940294039404941449E3
:102E20000594016040F2E731C0E9011440F2CF217E
:102E3000C0E9031444618461FFF7D2FB08B1FEF7D7
:102E400044FB4FF48050009069460A48FFF740FC6D
:102E500008B1FEF73AFB2020CDE9040404A9054897
:102E6000FFF78AFB002801D0FEF72FFB06B010BD4C
:102E7000002C014008110020FEE730B585B00C465B
:102E80000546FEF74DFC00200490009001200394BD
:102E9000CDE9010504A96846FEF7A4FB08B1FEF7D9
:102EA00014FBFEF7F3FB05B030BD70B50C460546CC
:102EB000FEF736FC2246002329460120FEF7F0FBF0
:102EC00008B1FEF702FBBDE87040FEF7DFBB0088EB
:102ED000704700F079B8000010B54FF40061044865
:102EE000FEF722FD04460320FEF7DFFA204610BD60
:102EF000000C014010B5012000F080F8012000F026
:102F00006FF8FFF7E9FF0446002000F069F820465B
:102F100010BD2DE9F04107460024012000F06EF8B5
:102F200000258026012000F05BF8FFF7D5FF10B1E7
:102F300026FA05F00443002000F052F86D1CEDB2B3
:102F4000082DEFD3384600F003F82046BDE8F081A5
:102F500010B50446002000F043F8204600F04EF87B
:102F6000012000F03DF8002000F03AF8BDE81040E4
:102F7000012000F043B870B500240646802525FAEC
:102F800004F0304000D0012000F038F8012000F0BB
:102F900027F8002000F024F8641CE4B2082CEED3DB
:102FA000BDE87040012000F029B810B5012000F004
:102FB00025F8012000F014F8002000F01FF8BDE80B
:102FC0001040002000F00CB810B5002000F016F8FA
:102FD000012000F005F8BDE81040012000F00EB817
:102FE00010B502464FF480610348FEF7A2FCBDE82D
:102FF00010400320FEF759BA000C014010B50246FC
:103000004FF400610348FEF794FCBDE81040032034
:10301000FEF74BBA000C0140FEE7000030B400217F
:10302000094C0A46002004EBC1131A54401CC0B2DC
:103030008028FAD3491CC9B20829F3D3082130BC2F
:10304000002000F0C7B800007C0000202DE9F04708
:103050009146824601F00706002221E000201AE096
:10306000114C00EBD10504EBC5170AEB0205FF2458
:1030700017F805C004FA06F82CEA080C07F805C092
:103080003D44C6F1080C15F8807F24FA0CF4A743E0
:10309000401C2F70C0B2B0EBD30FE1D3521CD2B2A0
:1030A0004A45DBD3BDE8F0877C00002010B517212E
:1030B000054800F0A5F80021084600F007F8BDE833
:1030C0001040FFF7ABBF00000000002008B501F082
:1030D0000F028DF80020102242EA11118DF8011024
:1030E00040F0B0008DF802000321684600F088F837
:1030F00008BD000008B5062B0DD0082B0AD10B4BDC
:1031000003EB0212A2F50072009210235FF0080296
:1031100000F010F808BD064B02EB420203EB42023E
:10312000C03A082300920622F2E70000926D0008E0
:103130006A6B00082DE9F04F994614468A4683468B
:10314000FFF784FF0AF00705002126E000201FE0BA
:10315000144A00EBDA03099F02EBC31600FB04F3E9
:103160000F440BEB010213F8078016F802C008FAAF
:1031700005F84CEA080C06F802C03244DB5D12F890
:10318000806FC5F10807FB401E43401C1670C0B29B
:10319000B0EBD90FDCD3491CC9B2A142D6D3BDE8EC
:1031A000F08F00007C0000202DE9F0411E461546FE
:1031B00088460746002408E004FB0670C0B2334688
:1031C0004146FFF797FF641CE4B22A5D002AF3D161
:1031D000BDE8F08170B50D460446084E0AE00021B6
:1031E0002046FFF773FF06EBC410802100F016F8AD
:1031F000641CE4B2AC42F2D370BD00007C0000203D
:103200000EB54FF47A728DE8070001230022782171
:103210000148FEF75DFC0EBDA01000200EB54FF476
:103220007A728DE807000123402278210148FEF7D9
:103230004FFC0EBDA01000207047704770B50446CB
:10324000FEF77CFB05464FF47A7606E0FEF776FB48
:10325000401BB04201D9032070BD20684068800641
:10326000F4D52068416841F010014160002070BD34
:1032700070B504460068416821F010014160FEF716
:103280005DFB05464FF47A7607E000BFFEF756FB7C
:10329000401BB04201D9032070BD20684068800601
:1032A000F4D5002070BD70472DE9F0412148FFF7AB
:1032B0000EFEA0F57F41FF3939D01F4F00241F4E6D
:1032C0005FEAA74507EB4400FFF701FE06F814008C
:1032D00006EB4401000A641CA4B24870AC42F1D36E
:1032E000174F184E002400BF07EB4400FFF7EFFD17
:1032F00006F8140006EB4401000A641CA4B24870EE
:10330000AC42F1D3104F114E002400BF07EB440034
:10331000FFF7DDFD06F8140006EB4401000A641C0B
:10332000A4B24870AC42F1D30020BDE8F081012086
:10333000FBE70000F4F5010800F40108A0040020F8
:1033400000F80108A008002000FC0108A00C0020E3
:103350002DE9F041184E03213046FFF78EFD002481
:10336000164FB51407EB4400018806EB4400FFF745
:103370009CFD641CA4B2AC42F4D3114E114F002446
:1033800006EB4400018807EB4400FFF78EFD641C48
:10339000A4B2AC42F4D30C4E0C4F002406EB440014
:1033A000018807EB4400FFF780FD641CA4B2AC4227
:1033B000F4D3BDE8F081000000F40108A00400206F
:1033C000A008002000F80108A00C002000FC010863
:1033D000FEF74EBC70B594B028216846FDF738F86A
:1033E00014210AA8FDF734F800250F9509200124BF
:1033F00010950090119512954FF480300494069426
:10340000CDE901050226CDE907604FF4E0100990EF
:103410006846FEF789FE08B172B6FEE70F20CDE9D7
:103420000A064FF48060CDE90C5002210AA80E95DF
:10343000FEF79EFD08B172B6FEE74FF40070CDE9CD
:103440000F400FA8FEF71EFD002801D072B6FEE760
:1034500014B070BD704700000148FFF7A8B9000024
:1034600008110020F0B50268194B1A4C1A4D4FF0A4
:103470008047984205D0B84203D0A04201D0A8426C
:1034800003D122F070064A683243984205D0B84210
:1034900003D0A04201D0A84203D122F44074CA68EC
:1034A00022434C6922F08002224302608A68C26291
:1034B0000A688262984201D1096901630121416170
:1034C0000169C90703D0016921F001010161F0BD63
:1034D000002C0140000400400008004010B5846842
:1034E00042EA032224F47F440A432243826010BD4F
:1034F000826822F070020A4342F00701816070473F
:1035000010B5036A046A24F001040462846924F09B
:10351000F00444EA021423F00A020A4384610262BE
:1035200010BD10B5036A046A24F0100404628469B3
:1035300023F0A00324F4704444EA023243EA011168
:103540008261016210BDFEE7490050EAC12018BF48
:1035500004204A0D18BF40F0010040F2FF72B2EBA8
:10356000515F08BF40F00200012808BF05207047E6
:103570000907090E002804DB00F1E02080F80014A0
:10358000704700F00F0000F1E02080F8141D704734
:103590002DE9F0414F1E00EBC7010446D1E90001BF
:1035A00015461E4637F006020DD02A46334602F075
:1035B0007FFC7F1E04EBC703D3E9002302F014FA5B
:1035C00037F00602F1D1022F25D0042F13D0062F99
:1035D00018BFBDE8F0812A46334602F069FCD4E901
:1035E0000A2302F001FA2A46334602F061FCD4E9CC
:1035F000082302F0F9F92A46334602F059FCD4E9CF
:10360000062302F0F1F92A46334602F051FCD4E9D0
:10361000042302F0E9F92A46334602F049FCD4E9D2
:10362000022302F0E1F92A46334602F041FCD4E9D4
:103630000023BDE8F04102F0D7B9012203F029BA16
:1036400002F0D2B9002213461046114602F088BAA1
:10365000024A0020110703F01CBA000001FDFFFF21
:1036600030380A2801D2012070470020704700003E
:103670002DE9F04D8D4F21F0004A86B005460C46ED
:10368000BA452ADBAAEB070028430AD088488245BE
:1036900001DC1AD1CDB106B02846BDE8F04DFFF7E8
:1036A000CCBF844A844B284602F002FC07460E46F3
:1036B000824A834B2846214602F0FAFB06B03A467E
:1036C0003346BDE8F04D02F08FB90120FCF7EFFE64
:1036D00006B0BDE8F04DFFF7B5BF7A48824542DA43
:1036E000BAF1795F0BDA2846FFF72EFF042808BFEE
:1036F000FFF7AEFF284606B02146BDE8F08D2A460A
:103700000B46104602F0D4FB834602466E480E4636
:103710000B4606217844FFF73BFF5A46334602F03A
:10372000C7FB804669488A465A4633460421784496
:10373000FFF72EFF5A46334602F0BAFB00223B4603
:1037400002F052F902460B464046514602F008FA92
:103750002A46234602F0ACFB06B02A462346BDE8C3
:10376000F04D02F041B9284624F0004100223D46C8
:103770003B4602F09BFC4FF0FF3203F08AF906460D
:10378000024653480F460B4606217844FFF700FFD8
:1037900032463B4602F08CFBCDE900014D483246F3
:1037A0003B4604217844FFF7F3FE32463B4602F0E5
:1037B0007FFB00222B4602F017F983460291304628
:1037C000394602F0A3F8804643480D46504517DCC1
:1037D000DDE900015A46029B02F0C2F942462B463F
:1037E00002F066FB42462B4602F0FEF8012203F08F
:1037F00050F9304A304B02F04BFD304A304B4CE030
:103800004FF0000A52460B46404602F0EDF8CDE973
:10381000031052462B461046194602F049FB324629
:103820003B4602F043FCDDE9033202F099F906461B
:103830000F46DDE900015A46029B02F091F98346EA
:10384000009101223046394603F023F9194A1A4BF8
:1038500002F02CFC06460F4601224046294603F0A2
:1038600018F95A46009B02F023FB32463B4602F011
:103870000FFD06460F4601225046294603F009F97E
:103880000E4DDFF858802A46434602F00FFC3246C0
:103890003B4602F00BFC2A46434602F007FC002C94
:1038A000D8BF81F0004106B0BDE8F08D0000F03FC8
:1038B0000000F07F075C143326A6913C182D445479
:1038C000FB21F93F0000E03FF048000006490000FE
:1038D0007A480000904800003333EF3FFB21E93F76
:1038E0002DE9F84F04460D4621F000400091734940
:1038F000814211DC7249884201DC06D12CB120469C
:103900002946BDE8F84FFFF798BE6E48002DCCBFA2
:103910006D496E49BDE8F88F6D49814211DD6D49F1
:103920008142D8BF4FF0FF366DDD20462946FFF7B4
:103930000BFE042808BFFFF78BFE20462946BDE892
:10394000F88F6549654F25F00045814233DD6449B4
:10395000814219DD002632464FF080432046294639
:1039600002F042F880468A4601222046294603F0AA
:1039700090F800223B4602F08BFC4246534602F090
:10398000EFF804460D463EE001260022BA463B46CB
:103990002046294602F028F880460F46002253466A
:1039A0002046294602F074FC42463B4602F0D8F815
:1039B00004460D4627E04B4981421BDDDFF828A174
:1039C0000226002253462046294602F071FA0022C0
:1039D0003B4602F009F880460F4600225346204637
:1039E000294602F055FC42463B4602F0B9F804462F
:1039F0000D4608E0032622462B4600203B4902F0F4
:103A0000AFF804460D4622462B461046194602F0F2
:103A10004FFA8B46824602460B4602F049FA0746A9
:103A20000246334888460B4606217844FFF7B0FD2E
:103A300052465B4602F03CFA82462E488B463A4696
:103A4000434605217844FFF7A3FD3A46434602F07A
:103A50002FFA02460B46002E504659460CDA01F06A
:103A6000C3FF22462B4602F023FA01B022462B4622
:103A7000BDE8F04F02F01ABB01F0B6FF22462B461C
:103A800002F016FA1C4A7A4402EBC603D3E900237B
:103A900002F0FEFB22462B4602F0FAFB174A7A445C
:103AA00002EBC603D3E9002302F000FB009A002AD0
:103AB000B8BF81F00041BDE8F88F0000000010445D
:103AC0000000F07F182D4454FB21F93FFB21F9BF82
:103AD0000000DC3F0000203E0000F33F0000F03F0C
:103AE0000000E63F008003400000F83F0000F0BF08
:103AF0009246000050460000EE450000B64500002A
:103B00002DE9F04D9446CCF1000423F000464CEA38
:103B10000404594F46EAD4749A46884621F000427C
:103B2000BC4206D8454240EA050442EAD474BC428D
:103B300004D9BDE8F04D6246FFF782BDAAF14055B9
:103B4000A5F17F6555EA0C040BD0022404EAAA749F
:103B50004A4DDFF82CE144EAD87452EA000B04D055
:103B60000CE0BDE8F04DFFF7BBBE002C14BF012CEC
:103B7000BDE8F08D022C30D0032C32D056EA0C0B6D
:103B80000AD0BE4220D1BA4209D126F0804622F0A6
:103B900080423346114617E000291ADB25E0DFF8A2
:103BA000E4B0FB44002C04BFDBE90001BDE8F08D6C
:103BB000012C02BFDBE9000181F00041BDE8F08D7E
:103BC000022C0AD0032C0CD0BA4212D1B8F1000F4B
:103BD0000BDA2A482C49BDE8F08D28462B49BDE870
:103BE000F08D28467146BDE8F08D24482849BDE88F
:103BF000F08D921B12153C2AC4BF204F244E10DCBE
:103C0000BAF1000FBEBF12F13C0F00273E4608DBA1
:103C1000624601F0A5FF21F00041FFF761FE074673
:103C20000E4694B1012C08BF86F000460DD0194A0B
:103C3000194B022C3846314615D002F029FB2A4692
:103C4000BDE8F04D114B02F023BB0022134638466D
:103C5000314602F0DDF804BF0220FCF728FC3846AC
:103C60003146BDE8F08D02F013FB2A46BDE8F04D69
:103C7000064B02F01BBA00000000F07F182D4454E0
:103C8000FB2109C04A450000FB21F9BFFB21094087
:103C9000FB21F93F075C143326A6A13C08B560B1AF
:103CA00020208DF8000028208DF8010030208DF8AC
:103CB000020038208DF8030004E0A32204216846A6
:103CC000FCF7BEFB6A46042140F69E2001F0BCFDD5
:103CD00001F0D8FA08BD00003EB5044602208DF878
:103CE0000000CA208DF80100E3208DF802000920B1
:103CF0008DF803006A460421682001F0A5FDA32089
:103D00008DF80000610609D5C0218DF80110C82189
:103D10008DF80210C2218DF8031005E08DF8010026
:103D20008DF802008DF8030014F4C07F09D0C4217F
:103D30008DF80410CC218DF80510C6218DF80610E1
:103D400005E08DF804008DF805008DF806008DF86B
:103D500008008DF807008DF809006A460A2140F630
:103D6000A72001F071FDA0074FF0D80503D0202057
:103D70008DF8000001E08DF800506A46012140F600
:103D8000B62001F061FDA00601D5012000E0002071
:103D900000F08EF814F4C07F1ED0E0050AD5B220E2
:103DA0008DF800008B208DF80100B6208DF8020000
:103DB0009B2009E0B0208DF8000080208DF80100E4
:103DC000B4208DF8020090208DF803006A4604218B
:103DD00040F6A22001F038FDE1074FF40B6022D03D
:103DE000F8218DF800106A46012101F02DFDFA211D
:103DF000072000F077FA072000F042FA012000F0D7
:103E00005FFA642000F002FB4FF4FA7000F00EFB42
:103E1000C821254800F0FCF9282000F011FA0A20FA
:103E200000F01EFA05E08DF800506A46012101F00D
:103E30000BFDA00703D5D9208DF8000001E08DF817
:103E400000506A46012140F23D7001F0FDFC600720
:103E500001D5012000E0002000F048F8E00601D57F
:103E6000012000E00020FFF719FF104D44F008008A
:103E7000688101F007FA0020A873600601D50620CA
:103E8000A87314F4C07F02D0A87B801DA87314F01F
:103E9000140F02D0A87B1030A873A00702D0A87B13
:103EA000001DA87300203EBD09E3CA027C04002067
:103EB0000EB54FF4976310B106A107C901E008A23F
:103EC00007CA8DE807006A460921184601F0BCFCC4
:103ED0000EBD0000B8AAB38DB4980D355D0000008A
:103EE000B8AAAAAAB088C3C5C700000008B560B1C7
:103EF000C0208DF80000C2208DF80100C4208DF88C
:103F00000200C6208DF8030004E08B2204216846DD
:103F1000FCF796FA6A46042140F6982001F094FCDA
:103F200001F0B0F908BD0000C8234FF480620249D7
:103F300040F6F63001F064B8C47300082DE9FF4F75
:103F400089B01746DDE916520024544E8846814652
:103F50002C80A246B07B694601F022F94FF0FF3B6E
:103F600018B158460DB0BDE8F08F708910F0140FED
:103F70004CD0BDF800109DF8022049BA090441EA6E
:103F800002239DF803100B433B60BDF804109DF81D
:103F9000062049BA090441EA02229DF807101B14C1
:103FA0000A437A60BDF808109DF80A4049BA09042E
:103FB00041EA04219DF80B4012142143B960BDF879
:103FC0000C409DF80EC064BA240444EA0C2C9DF801
:103FD0000F4009144CEA040CC7F80CC04FEA2C47F8
:103FE0005B43494302FB023207FB071111441024D3
:103FF000A1F17061B1F1007F04D901F043F9A5F896
:1040000000A0AEE7298841F4807129804206694604
:1040100011D50A19A41D13885BBAA8F8003053887B
:104020005BBAA8F80230928852BAA8F804202A880D
:1040300042F008022A8010F4C07F11D00A19A41D92
:1040400013885BBAA9F8003053885BBAA9F802302C
:10405000928852BAA9F804202A8842F070022A8075
:10406000800716D00C44E07800F0C00500F03F0156
:104070006078C00706D0C80801F007013268491C03
:1040800002B190476078000703D5716809B1A809AB
:1040900088470C9801F002FC002063E77C040020B4
:1040A00030B5044613A285B007CA8DE807004FF06B
:1040B000FF35C82C16D8C820B0FBF4F1491E080AF9
:1040C0008DF80C008DF80D1003AA022140F2162085
:1040D00001F0BAFB30B96A460C2140F6C12001F06C
:1040E000B3FB10B1284605B030BD054884810020DF
:1040F000F9E70000FEF2ABC4AAF1DFDFBBAFDFDF00
:104100007C0400202DE9FF4104463CA004F0030399
:10411000006802903AA0006803903AA006683AA0AE
:10412000056802A8C15C8DF80010C4F3C101425CAF
:104130008DF80120C4F38112805C8DF8020003A881
:10414000C35C8DF80430415C8DF80510805C8DF8FF
:1041500006006A46032140F2264001F075FB4FF04D
:10416000FF37E0BB01AA032140F22A4001F06CFBBB
:10417000A8BBCDE9006560070BD59DF8000040F0B5
:1041800001008DF800009DF8040040F001008DF85A
:104190000400A0060BD59DF8010040F001008DF849
:1041A00001009DF8050040F001008DF80500E005D4
:1041B0000BD59DF8020040F001008DF802009DF83B
:1041C000060040F001008DF806006A4603214FF416
:1041D000886001F039FB10B901AA032100E004E076
:1041E00040F2314001F030FB18B1384604B0BDE870
:1041F000F081064804810020F8E700004CCD6C00F7
:104200000CC92C0036567600264666007C04002039
:104210004FF47A7290FBF2F008B54843010E8DF826
:104220000010010C8DF80110010A8DF802108DF8B4
:1042300003006A4604214FF4AE7001F005FB08BD8F
:104240000521B0FBF1F008B5010A8DF800108DF8DA
:1042500001006A4602214FF4AD7001F0F5FA08BD85
:104260000521B0FBF1F008B5010A8DF800108DF8BA
:1042700001006A4602214FF4AC7001F0E5FA08BD76
:1042800008B500218DF80010C10702D030218DF84B
:104290000010810705D59DF8001041F00C018DF844
:1042A0000010400705D59DF8000040F003008DF890
:1042B00000006A4601214FF4A47001F0C5FA08BD60
:1042C00008B560B1042800D90420401E8DF8000014
:1042D0006A46012140F24F1001F0B6FA08BD0120F4
:1042E000F3E700002DE9FC41054640074FF0FF369B
:1042F0007CD0B1F5C86F79D8084602F041FA3E4942
:1043000002F044F9074601A800F0AEFD9DF8040054
:10431000022806D004280DD008282ED0102865D1F8
:1043200034E00E21384602F0E2FB02F0F1F984B2EB
:10433000324907E00D21384602F0D9FB02F0E8F9D6
:104340002F4984B2384602F02FFA02F0E1F9210A2F
:104350008DF8001080B28DF80140010A8DF802102E
:104360008DF80300E8076C4620D0224602214FF466
:10437000EA7001F069FAC8BB11E00C21384602F07E
:10438000B6FB02F0C5F984B21E49DBE70B213846C3
:1043900002F0ADFB02F0BCF984B21B49D2E7A21CCB
:1043A00002214FF4927001F04FFAF8B9A8070DD529
:1043B0006A4602214FF4EC7001F046FAB0B9A21C33
:1043C00002214FF4947001F03FFA78B9680710D5D4
:1043D0006A4602214FF4EE7001F036FA30B9A21CA1
:1043E00002214FF4967001F02FFA10B13046BDE86B
:1043F000FC810020FBE7000000004843000040462D
:104400000000C045000040450000C0440521B0FB4D
:10441000F1F008B5010A8DF800108DF801006A4628
:1044200002214FF4EF7001F00FFA08BD0521B0FB37
:10443000F1F008B5010A8DF800108DF801006A4608
:1044400002214FF4ED7001F0FFF908BD00B50246FE
:1044500000F00DF80346D01C00F009F843EAC00351
:10446000901D00F004F843EA801080B200BD90F97E
:104470000010002902DD4FF00000704702DA4FF013
:104480000400704790F90110002902DD4FF001008F
:10449000704702DA4FF00500704790F902000028DB
:1044A00002DD4FF00200704702DA4FF0060070475D
:1044B0004FF0070070470000FDF7E2FBFEF78AFFB0
:1044C000FEF72EFCFEF76CFCFEF78AFCFEF79EFC66
:1044D000FEF7ECFD00F0C6F800F086FCFEF7E4FE07
:1044E0003E4C00283AD0002106233DA20846FEF7A4
:1044F0005BFE06233FA208210020FEF755FE08219F
:104500000020FEF767FE4048FEF7B6F840F2FF7560
:104510006E1C11E064214843B0FBF5F23BA13D481D
:10452000FBF776FE08233B4A10210020FEF73CFEF5
:1045300004210220FEF74EFE2088B042EAD906236D
:1045400035A220210020FEF72FFE06210420FEF7D1
:1045500041FEFEF7FDFEFDF72BFC01E00020208070
:104560002948FEF789F8082331A230210020FEF700
:104570001BFE08215FF00500FEF72CFE206901F00C
:1045800071FF0B4602462EA12248FBF741FE002197
:104590000823204A0846FEF707FE606901F062FF23
:1045A0000B46024629A11B48FBF732FE0823194A95
:1045B00010210020FEF7F8FDA06901F053FF02462C
:1045C0000B4625A11348FBF723FE0823114A20219F
:1045D0000020FEF7E9FD08210020CDE75000002073
:1045E000466F72207468652046697273742054693E
:1045F0006D652E0053746172742053656C6620548F
:104600006573742E2E2E0000081100205B25642592
:10461000255D00008C04002046696E69736865643E
:1046200021526573657474696E672E2E0000000058
:10463000496E6974205375636365737300000000ED
:1046400070697463683A252E31660000726F6C6C75
:104650003A252E31660000007961773A252E3166C1
:104660000000000008B5FEF734FC80226B216820B2
:1046700001F0D0F800226B21682001F0CBF818225D
:104680001B21682001F0C6F818221C21682001F0C7
:10469000C1F86420FEF72BFB00223821682001F0CE
:1046A000B9F800226A21682001F0B4F80022232121
:1046B000682001F0AFF880223721682001F0AAF8C5
:1046C0006A467521682000F047FD9DF800007028BB
:1046D00001D0012008BD01226B21682001F09AF869
:1046E00000226C21682001F095F86420FEF7FFFAA3
:1046F000002008BD2DE9F041124C20F001010025F9
:1047000094F8240010B10020BDE8F081A07A4FF0A9
:10471000FF3668B10840277C2074884200D03546B7
:1047200041B1012001F0C6F800F0ACFD38B12774AA
:104730003046E9E7207D00B1012001F0BBF82846B2
:10474000E2E70000180000202DE9F04F99B00D4677
:10475000064617A911A8CDE90001144616AB04AA14
:1047600014A912A8FFF7EAFB18B1012019B0BDE89F
:10477000F08FBDF84400C0057ED5FE486FF01D07E0
:104780004FF0404900880028049876D001F0E0FFFF
:10479000394602F0ACF90390059801F0D9FF39468B
:1047A00002F0A5F90190069801F0D2FF394602F017
:1047B0009EF90090079801F0CBFF394602F097F977
:1047C0000290ED49306801F0EFFF01F04BFE8046AA
:1047D00009910121039802F08AF90D90009901F0E6
:1047E000E3FF07464946019801F0DEFF8146029942
:1047F00001F0DAFF394601F061FE01F033FEFEF709
:1048000037FF4FF06632DD4B01F052FBDFF870B33B
:104810004FF0C0425B4601F04BFB4246099B01F062
:10482000E3F801F0AFF83060D349286801F0BCFF2D
:1048300001F018FE0F4606460121009802F057F9D4
:104840000E90009901F0B0FF80464846019901F0B2
:10485000ABFF414602F074F84FF07E5101F02EFE9E
:1048600001F000FE81468A4601990D9801F09CFFF7
:10487000804602990E9801E0A0E267E001F094FF03
:10488000414601F01BFE01F0EDFD4A465346FFF79D
:1048900037F94FF06632B94B01F00AFB4FF0C042D6
:1048A0005B4601F005FB32463B4601F09DF801F006
:1048B00069F82860B049206801F076FF01F0D2FD68
:1048C000884602990646084601F06EFF0099814627
:1048D000084601F069FF01990746084601F064FFA8
:1048E00003990546084601F05FFF294601F0E6FD01
:1048F000394602F025F8494602F022F801F0B2FDEF
:1049000007460D46DDE9021001F04EFF8146DDE964
:10491000001001F049FF494601F0D0FD012102F0ED
:10492000E6F801F09FFD3A462B46FFF7E9F84FF015
:104930006632924B01F0BCFA4FF0C0425B4601F088
:10494000B7FA3246434601F04FF832E201F000FF79
:10495000394602F0CCF80390059801F0F9FE39468B
:1049600002F0C5F80190069801F0F2FE394602F017
:10497000BEF80090079801F0EBFE394602F0B7F858
:10498000804F029080493888B0F5006F7DD201EBEE
:104990005000007801F078FA7C4A7D4B01F088FAEB
:1049A00000227C4B01F0DCF808910C9072493068D1
:1049B00001F0FAFE01F056FD8046099101210398AD
:1049C00002F095F80F90009901F0EEFE0B90494629
:1049D000019801F0E9FE1090029901F0E5FE0B99B3
:1049E00001F06CFD01F03EFDFEF742FE4FF0663235
:1049F000624B01F05DFA4FF0C042614B01F058FA92
:104A00004246099B00F0F0FF089B0C9A01F040FC25
:104A100000F0B8FF30606048398800EB5100007842
:104A200001F032FA4FF06632554B01F041FA0022A4
:104A3000584B01F095F80E4680464F49286801F022
:104A4000B3FE01F00FFD81468B460121009802F074
:104A50004EF81890009901F0A7FE8246019910982F
:104A600001F0A2FE514601F06BFF4FF07E5101F0C4
:104A700025FD01F0F7FCCDE90C0101990F9801F03B
:104A800093FE82460299189800E09AE001F08CFEAD
:104A9000514601F013FD01F0E5FCDDE90C23FFF7C1
:104AA0002FF84FF06632354B01F002FA4FF0C0425A
:104AB000334B01F0FDF94A465B4600F095FF424654
:104AC000334600F091FF00F05DFF286033483988DD
:104AD00000EB5100007801F0D7F900222D4B01F0D6
:104AE0003FF880468B462449206801F05DFE01F0C6
:104AF000B9FC8A4602998146084601F055FE0099A4
:104B00000E90084601F050FE01990646084601F055
:104B10004BFE03990546084601F046FE294601F082
:104B2000CDFC314601F00CFF0E9901F009FF01F0B8
:104B300099FC0D460646DDE9021001F035FE0290B3
:104B4000DDE9001001F030FE029901F0B7FC01210F
:104B500001F0CDFF01F086FC32462B46FEF7D0FF78
:104B60004FF06632054B01F0A3F94FF0C042044B01
:104B700016E0000050000020D0CC4C3D66A64C4012
:104B80006666EE3F44000020A0040020B81E85EBBE
:104B900051B8EE3F00002440A0080020A00C0020E7
:104BA00001F086F94A46534600F01EFF42465B4636
:104BB00001F06EFB00F0E6FE20603888401C388073
:104BC000FAE091F8FF0301F05FF97D4A7D4B01F0B7
:104BD0006FF900227C4B00F0C3FFCDE90A017B494D
:104BE000306801F0E1FD01F03DFC884608900121AC
:104BF000039801F07CFF0E90009901F0D5FD074667
:104C00004946019801F0D0FD0F90029901F0CCFDCA
:104C1000394601F053FC01F025FCFEF729FD4FF069
:104C200066326B4B01F044F94FF0C042694B01F022
:104C30003FF94346089A00F0D7FEDDE90A2301F068
:104C400027FB00F09FFE3060634890F8FF0301F0FF
:104C50001BF94FF066325F4B01F02AF900225A4BE4
:104C600000F07EFF81468B465849286801F09CFD84
:104C700001F0F8FB80468A460121009801F037FFD9
:104C80001090009901F090FD064601990F9801F0EF
:104C90008BFD314601F054FE4FF07E5101F00EFCC9
:104CA00001F0E0FB06460F4601990E9801F07CFDED
:104CB0000E900299109801F077FD0E9901F0FEFB1D
:104CC00001F0D0FB32463B46FEF71AFF4FF066324A
:104CD0003F4B01F0EDF84FF0C0423E4B01F0E8F8D9
:104CE0004246534600F080FE4A465B4600F07CFE9A
:104CF00000F048FE2860394890F8FF0301F0C4F83E
:104D0000374A384B01F0D4F800222F4B00F028FF2F
:104D100080460F462D49206801F046FD01F0A2FBB8
:104D20000E4602998246084601F03EFD00998346F0
:104D3000084601F039FD01998146084601F034FD2D
:104D400003990546084601F02FFD294601F0B6FB00
:104D5000494601F0F5FD594601F0F2FD01F082FBF4
:104D600005468946DDE9021001F01EFD8346DDE9B6
:104D7000001001F019FD594601F0A0FB012101F0DE
:104D8000B6FE01F06FFB4B462A46FEF7B9FE4FF028
:104D900066320F4B01F08CF84FF0C0420D4B01F022
:104DA00087F85246334600F01FFE42463B4601F06C
:104DB0006FFA00F0E7FD20600020D7E40220D5E480
:104DC000B81E85EB51B8EE3F00002440D0CC4C3DDE
:104DD00066A64C406666EE3FA0080020A00C0020AE
:104DE0001F85EB51B81EF13F10B500F05BF810F0D5
:104DF000FF0403D0FCF769FB0A2010BD782000F007
:104E0000ADFC08B1012010BD7820FFF773FC08B19C
:104E1000022010BD642000F061FC08B1032010BD29
:104E2000FFF782F808B1042010BD0E48FFF70EFB13
:104E3000FFF768F908B1052010BD40F27B10FEF7BE
:104E40004BFF08B1062010BD6420FFF729F908B117
:104E5000072010BD012000F067FB08B1092010BD3C
:104E6000204610BD460000200D494A7A42B1012A71
:104E700008D0022A0FD0032A0FD04FF0FF3070471E
:104E8000022200E004220270C97C11B11106C90D92
:104E90000170002070470822F5E71022F3E70000B8
:104EA000180000207CB52C4C80208DF80000206874
:104EB0006B460122417D6068007800F07FF84FF07A
:104EC000FF36E8BB6420FCF7E5FA00258DF80050BA
:104ED00020686B460122417D6068007800F06EF822
:104EE00070BBE574FF2004F80A0F310C04F8020CC3
:104EF00004F8010C6070A180A07120720120A070E4
:104F000020766576E572A572E56025616561A57616
:104F1000E576A5834FF4FA6000F042FB80B90220E9
:104F200000F060FA60B92A2000F0A2FB40B96420CA
:104F300000F0D4FB20B90020FFF7DCFB00B900E053
:104F400003E0002000F082FA08B130467CBD00206A
:104F500000F004FC00207CBD180000202DE9F04189
:104F60001E4614460F460546FEF71FF86806000E5B
:104F7000FEF701F8FDF7BEFF3846FDF7FCFFFDF731
:104F8000B9FFFEF712F8012000EB4500C0B2FDF7B3
:104F9000F2FFFDF7AFFF0025671E08E0BD4201D11B
:104FA000012000E00020FDF7B4FF70556D1CA54204
:104FB000F4DBFEF709F80020BDE8F0812DE9F041AF
:104FC0001E4615460F460446FDF7EFFF6006000E2D
:104FD000FDF7D1FFFDF78EFF3846FDF7CCFFFDF75B
:104FE00089FF002405E0305DFDF7C5FFFDF782FF76
:104FF000641CAC42F7DBFDF7E7FF0020BDE8F08161
:105000002DE9FF4FDFF89480064685B098F825001B
:1050100015460F464FF0FF39B0BBAFB3002420E078
:10502000301B102800DD102080B283463A1901465B
:105030009246204600F008FC30BB6A46594620469E
:1050400000F0F6F800BB50465A466946FBF7CCF92B
:1050500020B16FF0010009B0BDE8F08F04EB0B0048
:1050600084B2B442DCD3280A8DF810008DF81150B8
:10507000D8F80000444604AB417FD8F8040002226F
:105080000078FFF79BFF08B14846E4E7012084F869
:1050900025000898E0840020DDE7000018000020CB
:1050A0002DE9F84305464FF0FF39282844D8072753
:1050B000284C00267DB1012000F0A8FA20208DF8B0
:1050C00000004FF00108012D17D0052D18D88DF8DC
:1050D000018005201FE0002000F098FA8DF80060A4
:1050E0008DF8017020686B460222417D606800786F
:1050F000FFF764FF00BB267529E08DF80160E8E743
:10510000142D04D802208DF801000A2003E00320AA
:105110008DF80100142000F0ABFA9DF801006B46F9
:1051200007EB80108DF8010020680222417D606845
:105130000078FFF743FF10B14846BDE8F883082028
:10514000A072267384F814800020FFF7D3FA0020A1
:10515000F3E700001800002070B515460E4604461F
:10516000FDF723FF6006000EFDF705FFFDF7C2FE09
:105170003046FDF700FFFDF7BDFEFDF716FF0120ED
:1051800000EB4400C0B2FDF7F6FEFDF7B3FE0120D0
:10519000FDF7BFFE2870FDF717FF002070BD00006F
:1051A0002DE9F843214C0646174694F82400894619
:1051B0004FF0FF3890B3A07A80B320686B4602228C
:1051C000017B60680078FFF7C9FE38BBBDF80000BE
:1051D00045BAB54202D2002038701FE060684188AD
:1051E000B5EB510F11D9216800786B46C97C0122BB
:1051F000FFF7B4FE90B99DF80000C00605D500F099
:1052000041F86FF00100BDE8F8832068F2B24B4628
:10521000417B60680078FFF7A1FE08B14046F2E7E5
:10522000B5FBF6F0401E38700020ECE718000020B7
:10523000F8B516000D464FF0FF371FD0104CA17A7D
:10524000E1B1010A8DF80010C0B28DF801004119DA
:1052500060684289914211D8216800786B46C97E06
:105260000222FFF7ABFE48B92068EAB23346017E5E
:1052700060680078FFF772FE002800D03846F8BD5D
:1052800018000020F8B5564C4FF0FF36A07A0028E1
:105290007DD000258DF8005020686B460122417CAE
:1052A00060680078FFF78AFE002870D120686B469E
:1052B0000122417960680078FFF780FE002866D1FE
:1052C00020686B460122017960680078FFF776FE5E
:1052D00000285CD194F82400E0B30C208DF8000085
:1052E00020686B460122017960680078FFF766FE4E
:1052F000002872D13220FCF7CDF8C0208DF80000D4
:10530000A07AC00702D0E0208DF8000020686B462C
:105310000122017960680078FFF750FE00285CD117
:10532000607C18B102208DF8000001E08DF800507B
:1053300020686B460122417C60680078FFF73EFEE2
:1053400028BB8DF8005020686B46012241796068C7
:1053500000783EE0FFE704208DF8000020686B46EF
:105360000122017960680078FFF728FE78B9A07CF7
:1053700090B9A07AC0070FD05FF060008DF80000F0
:1053800020686B46012201796068007800E024E023
:10539000FFF714FE08BB01E04020EFE73220FCF7E6
:1053A00079F8607C18B101208DF8000001E08DF8DB
:1053B000005020686B460122417C60680078FFF74E
:1053C000FDFD50B92068064B012241796068103319
:1053D0000078FFF7F3FD002800D03046F8BD00004C
:1053E0001800002038B5184C4FF0FF35A17A19B3DA
:1053F000022806D0042806D008280ED010281BD179
:105400000DE0002000E008208DF80000607A9DF893
:105410000010B0EBD10F04D005E01020F4E7182005
:10542000F2E7002038BD20686B460122C179606830
:105430000078FFF7C3FD08B1284638BD9DF800008D
:10544000C0086072EDE7000018000020F8B5354C88
:105450000546A07CA84201D10020F8BD31484FF09C
:10546000FF366B46D0E900104FF001020979007851
:1054700035B3FFF773FD70BB9DF800006B4620F05D
:1054800020008DF800002068012201796068007812
:10549000FFF794FDF8B90320FBF7FCFF02208DF81D
:1054A000000094F8220078B382202BE020686B463D
:1054B0000122C17D60680078FFF780FD58B92EE0B9
:1054C000FFF74CFD38B9A07AC0079DF8000003D063
:1054D00040F0200002E00CE020F020008DF80000F9
:1054E00020686B460122017960680078FFF766FD4D
:1054F00008B13046F8BD0320FBF7CCFF94F822003A
:1055000000B180208DF8000094F823000028CDD051
:105510009DF8000040F030008DF80000C6E7A5744B
:105520009AE700001800002038B51C4C94F82410AD
:1055300081421DD0002500B394F82500D0B1002091
:1055400000F0B8F90020FFF781FFE08C00F0C6F80A
:105550008DF8005060686B46012200782321FFF728
:105560002DFD012084F8240000F0A4F9FFF78AFE45
:10557000002038BD4FF0FF3038BD002000F09AF910
:10558000207C8DF8000060686B46012200782321A2
:10559000FFF714FD84F82450E8E70000180000200D
:1055A00038B5194C4FF0FF35A17A31B3FA2809D03C
:1055B000B0F5FA7F08D0B0F57A7F0FD0B0F5FA6F6A
:1055C0001BD10DE0002000E008208DF80000207ABB
:1055D0009DF80010B0EBD10F04D005E01020F4E7E7
:1055E0001820F2E7002038BD20686B46012281793F
:1055F00060680078FFF7E2FC08B1284638BD9DF8E6
:105600000000C0082072EDE71800002038B5174CE4
:10561000054694F82300A84201D1002038BD0DB101
:10562000302000E000208DF80000A07C28B19DF81B
:10563000000040F002008DF8000094F8220028B12C
:105640009DF8000040F080008DF8000020686B4657
:105650000122C17D60680078FFF7B0FC10B14FF007
:10566000FF3038BD84F82350D7E700001800002031
:1056700038B5194C4FF0FF35A17A31B3BC2801D3AE
:10568000012010E0622801D302200CE02A2801D377
:10569000032008E0142801D3042004E00A2801D3E1
:1056A000052000E006208DF80000E07A9DF800104B
:1056B000884201D1002038BD20686B4601228178E4
:1056C00060680078FFF77AFC08B1284638BD9DF87D
:1056D0000000E072EEE7000018000020F8B51E4D53
:1056E00004464FF0FF37A87A48B395F8240030BB42
:1056F000287D4FF47A7648B164B1282C03D820462F
:10570000FFF7CEFC26E00020FFF7CAFC042C05D2F0
:10571000042406E00020FFF7C3FCF9E7B44200D9F7
:105720003446B6FBF4F0401E8DF8000028686B4646
:105730000122417868680078FFF740FC08B13846DC
:10574000F8BD9DF80000401CB6FBF0F0E881400871
:10575000FFF78EFF0020F8BD18000020F8B50546C1
:1057600010F0700F4FF0000601D0012004E015B1D9
:105770008DF8006002E040208DF80000244C6B465C
:1057800001222068417D60680078FFF717FC4FF028
:10579000FF3760BB9DF8000020F0400020738DF8BB
:1057A0000060680602D404208DF80000A80605D425
:1057B0009DF8000040F002008DF80000E80605D4D6
:1057C0009DF8000040F001008DF80000280705D486
:1057D0009DF8000040F038008DF8000020686B460E
:1057E0000122817D60680078FFF7E8FB10B1A672A6
:1057F0003846F8BD25B1082D02D00020FFF706FF7E
:10580000A57226753220FBF745FE0020F8BD00008A
:105810001800002070B515460E460446FDF7C5FB7E
:105820006006000EFDF7A7FBFDF764FB3046FDF7B1
:10583000A2FBFDF75FFB2846FDF79DFBFDF75AFB3A
:10584000FDF7C2FB002070BDF8B516000D464FF005
:10585000FF371FD0104CA17AE1B1010A8DF800107A
:10586000C0B28DF80100411960684289914211D897
:10587000216800786B46C97E0222FFF79FFB48B97A
:105880002068EAB23346017E60680078FFF796FB35
:10589000002800D03846F8BD1800002004490968E7
:1058A000034A121D126802EB0141016070470000BB
:1058B00010280040F8B5144C0146224694F82460A4
:1058C000D2E9000200235D1E56B179B1022111E038
:1058D000417C10786B460122FFF770FB68B90EE03F
:1058E000A67A56B111B1617C61B902E08DF8003041
:1058F000EEE701218DF80010EAE72846F8BD9DF893
:10590000000060740020F8BD180000202DE9F0416F
:1059100006460F4600F0D6FB041E0D4618BF0120B8
:10592000284320F00040C0F17F6000F1E040C00F4C
:105930000ED0301C18BF0120384320F00040C0F1C9
:105940007F6000F1E040C00F04BF0120FAF7AFFD17
:1059500020462946BDE8F08110B500290AD0087814
:10596000002807D005487844FBF782F9002801D0C9
:10597000002010BD0248784410BD000046280000F9
:105980003E28000021F00042A2F16052B2F5801FD3
:1059900001F0004328BFD2F17F6C0BD95FEA001CF5
:1059A00043EAC20242EB507018BF704728BF20F094
:1059B00001007047B2F5801FBCBF184670474FEA20
:1059C000410C1CF5001F02D2084600F0B4BF70B5B0
:1059D00000F018FB00000089FFF7F6BF4FF0004011
:1059E000A0F580007047000010B591EA030F48BF92
:1059F00083F0004300F15484841A71EB030C05D248
:105A0000121943EB0C03001B61EB0C01DFF824E1DE
:105A10004FEA1154A4EB135C1EEA430F18BF9EEA31
:105A2000445F73D023EA0E03DCF1200E21EA045117
:105A300043F4801332D322FA0CFE10EB0E0023FA4B
:105A40000CFE41EB0E01CCF1200E03FA0EFE10EB22
:105A50000E0051F10001B1F5801FCCF1200E32D2C1
:105A600001EB045112FA0EF2BDE8104058BF704726
:105A7000401C38BF5FEA420218BF7047002814BFBD
:105A800020F0010041F100014FEA410313F5001F2E
:105A900038BF7047A1F1C04100F002BB012A43EBBF
:105AA0000302ACF1200CDCF11F0E32BF4FF0000EF0
:105AB00023FA0CF310EB030041EB0451B4EB115F3C
:105AC000D0D0A1EB045101F5801149085FEA300004
:105AD00001EB04510ED350F1000038BF12FA0EFE54
